{
  "contractName": "Burner",
  "abi": [
    {
      "constant": true,
      "inputs": [],
      "name": "supplier",
      "outputs": [
        {
          "name": "",
          "type": "address"
        }
      ],
      "payable": false,
      "stateMutability": "view",
      "type": "function"
    },
    {
      "constant": false,
      "inputs": [],
      "name": "burn",
      "outputs": [],
      "payable": false,
      "stateMutability": "nonpayable",
      "type": "function"
    },
    {
      "constant": true,
      "inputs": [],
      "name": "purpose",
      "outputs": [
        {
          "name": "",
          "type": "address"
        }
      ],
      "payable": false,
      "stateMutability": "view",
      "type": "function"
    },
    {
      "constant": true,
      "inputs": [],
      "name": "burnPerweiYearly",
      "outputs": [
        {
          "name": "",
          "type": "uint256"
        }
      ],
      "payable": false,
      "stateMutability": "view",
      "type": "function"
    },
    {
      "constant": true,
      "inputs": [],
      "name": "burnable",
      "outputs": [
        {
          "name": "",
          "type": "uint256"
        }
      ],
      "payable": false,
      "stateMutability": "view",
      "type": "function"
    },
    {
      "constant": true,
      "inputs": [],
      "name": "lastBurn",
      "outputs": [
        {
          "name": "",
          "type": "uint256"
        }
      ],
      "payable": false,
      "stateMutability": "view",
      "type": "function"
    },
    {
      "constant": true,
      "inputs": [],
      "name": "start",
      "outputs": [
        {
          "name": "",
          "type": "uint256"
        }
      ],
      "payable": false,
      "stateMutability": "view",
      "type": "function"
    },
    {
      "constant": true,
      "inputs": [],
      "name": "MAXPERWEI",
      "outputs": [
        {
          "name": "",
          "type": "uint256"
        }
      ],
      "payable": false,
      "stateMutability": "view",
      "type": "function"
    },
    {
      "inputs": [
        {
          "name": "_purpose",
          "type": "address"
        },
        {
          "name": "_supplier",
          "type": "address"
        },
        {
          "name": "_start",
          "type": "uint256"
        },
        {
          "name": "_burnPerweiYearly",
          "type": "uint256"
        }
      ],
      "payable": false,
      "stateMutability": "nonpayable",
      "type": "constructor"
    }
  ],
  "bytecode": "0x6060604052341561000f57600080fd5b60405160808061073583398101604052808051906020019091908051906020019091908051906020019091908051906020019091905050600073ffffffffffffffffffffffffffffffffffffffff168473ffffffffffffffffffffffffffffffffffffffff161415151561008257600080fd5b600073ffffffffffffffffffffffffffffffffffffffff168373ffffffffffffffffffffffffffffffffffffffff16141515156100be57600080fd5b6000821115156100cd57600080fd5b6000811180156100e55750670de0b6b3a76400008111155b15156100f057600080fd5b836000806101000a81548173ffffffffffffffffffffffffffffffffffffffff021916908373ffffffffffffffffffffffffffffffffffffffff16021790555082600160006101000a81548173ffffffffffffffffffffffffffffffffffffffff021916908373ffffffffffffffffffffffffffffffffffffffff1602179055508160028190555081600381905550806004819055505050505061059c806101996000396000f30060606040526004361061008e576000357c0100000000000000000000000000000000000000000000000000000000900463ffffffff16806336da44681461009357806344df8e70146100e857806370740aab146100fd5780639b5c0b5e14610152578063a07c7ce41461017b578063bbce2c17146101a4578063be9a6555146101cd578063f2cf687a146101f6575b600080fd5b341561009e57600080fd5b6100a661021f565b604051808273ffffffffffffffffffffffffffffffffffffffff1673ffffffffffffffffffffffffffffffffffffffff16815260200191505060405180910390f35b34156100f357600080fd5b6100fb610245565b005b341561010857600080fd5b610110610325565b604051808273ffffffffffffffffffffffffffffffffffffffff1673ffffffffffffffffffffffffffffffffffffffff16815260200191505060405180910390f35b341561015d57600080fd5b61016561034a565b6040518082815260200191505060405180910390f35b341561018657600080fd5b61018e610350565b6040518082815260200191505060405180910390f35b34156101af57600080fd5b6101b76104e9565b6040518082815260200191505060405180910390f35b34156101d857600080fd5b6101e06104ef565b6040518082815260200191505060405180910390f35b341561020157600080fd5b6102096104f5565b6040518082815260200191505060405180910390f35b600160009054906101000a900473ffffffffffffffffffffffffffffffffffffffff1681565b600061024f610350565b905060008111151561026057600080fd5b426003819055506000809054906101000a900473ffffffffffffffffffffffffffffffffffffffff1673ffffffffffffffffffffffffffffffffffffffff16633516df21826000604051602001526040518263ffffffff167c010000000000000000000000000000000000000000000000000000000002815260040180828152602001915050602060405180830381600087803b15156102ff57600080fd5b6102c65a03f1151561031057600080fd5b50505060405180519050151561032257fe5b50565b6000809054906101000a900473ffffffffffffffffffffffffffffffffffffffff1681565b60045481565b600080600080600061036d6003544261050190919063ffffffff16565b935061039a6301e1338061038c6004548761051a90919063ffffffff16565b61055590919063ffffffff16565b92506000809054906101000a900473ffffffffffffffffffffffffffffffffffffffff1673ffffffffffffffffffffffffffffffffffffffff166370a08231600160009054906101000a900473ffffffffffffffffffffffffffffffffffffffff166000604051602001526040518263ffffffff167c0100000000000000000000000000000000000000000000000000000000028152600401808273ffffffffffffffffffffffffffffffffffffffff1673ffffffffffffffffffffffffffffffffffffffff168152602001915050602060405180830381600087803b151561048257600080fd5b6102c65a03f1151561049357600080fd5b5050506040518051905091506104cc670de0b6b3a76400006104be858561051a90919063ffffffff16565b61055590919063ffffffff16565b9050818111156104de578194506104e2565b8094505b5050505090565b60035481565b60025481565b670de0b6b3a764000081565b600082821115151561050f57fe5b818303905092915050565b600080600084141561052f576000915061054e565b828402905082848281151561054057fe5b0414151561054a57fe5b8091505b5092915050565b600080828481151561056357fe5b04905080915050929150505600a165627a7a723058208c5cd557110245bb64ccf97fe1c7db142c88f7c5bbd302da92d7718fd1f5184c0029",
  "source": "pragma solidity 0.4.18;\n\nimport \"zeppelin-solidity/contracts/math/SafeMath.sol\";\nimport \"./Purpose.sol\";\n\n\ncontract Burner {\n  using SafeMath for uint256;\n\n  Purpose public purpose;\n  address public supplier;\n  uint256 public start;\n  uint256 public lastBurn;\n  uint256 public burnPerweiYearly;\n  uint256 constant public MAXPERWEI = 1 ether;\n\n  function Burner (address _purpose, address _supplier, uint256 _start, uint256 _burnPerweiYearly) {\n    require(_purpose != address(0));\n    require(_supplier != address(0));\n    require(_start > 0);\n    require(_burnPerweiYearly > 0 && _burnPerweiYearly <= MAXPERWEI);\n\n    purpose = Purpose(_purpose);\n    supplier = _supplier;\n    start = _start;\n    lastBurn = _start;\n    burnPerweiYearly = _burnPerweiYearly;\n  }\n  \n  function burn () external {\n    // get how much purpose will be burned\n    uint256 amount = burnable();\n    require(amount > 0);\n\n    // update state\n    lastBurn = now;\n\n    // burn purpose\n    assert(purpose.supplyBurn(amount));\n  }\n\n  function burnable () public view returns (uint256) {\n    // seconds since last burn\n    uint256 secsPassed = now.sub(lastBurn);\n    // how much percent to burn\n    uint256 perweiToBurn = secsPassed.mul(burnPerweiYearly).div(1 years);\n\n    // balance of supplier\n    uint256 balance = purpose.balanceOf(supplier);\n    // how much purpose to burn\n    uint256 amount = balance.mul(perweiToBurn).div(MAXPERWEI);\n\n    // return how much would be burned\n    if (amount > balance) {\n      return balance;\n    }\n    return amount;\n  }\n}",
  "sourcePath": "/mnt/d/work/thesingularitygroup/projects/purpose/contracts/contracts/Burner.sol",
  "compiler": {
    "name": "solc",
    "version": "0.4.18+commit.9cf6e910.Emscripten.clang"
  },
  "schemaVersion": "1.0.1",
  "updatedAt": "2017-12-26T19:02:51.894Z"
}