{
  "contractName": "Burner",
  "abi": [
    {
      "constant": true,
      "inputs": [],
      "name": "supplier",
      "outputs": [
        {
          "name": "",
          "type": "address"
        }
      ],
      "payable": false,
      "stateMutability": "view",
      "type": "function"
    },
    {
      "constant": false,
      "inputs": [],
      "name": "burn",
      "outputs": [],
      "payable": false,
      "stateMutability": "nonpayable",
      "type": "function"
    },
    {
      "constant": true,
      "inputs": [],
      "name": "burnPercentYearly",
      "outputs": [
        {
          "name": "",
          "type": "uint256"
        }
      ],
      "payable": false,
      "stateMutability": "view",
      "type": "function"
    },
    {
      "constant": true,
      "inputs": [],
      "name": "purpose",
      "outputs": [
        {
          "name": "",
          "type": "address"
        }
      ],
      "payable": false,
      "stateMutability": "view",
      "type": "function"
    },
    {
      "constant": true,
      "inputs": [],
      "name": "burnable",
      "outputs": [
        {
          "name": "",
          "type": "uint256"
        }
      ],
      "payable": false,
      "stateMutability": "view",
      "type": "function"
    },
    {
      "constant": true,
      "inputs": [],
      "name": "lastBurn",
      "outputs": [
        {
          "name": "",
          "type": "uint256"
        }
      ],
      "payable": false,
      "stateMutability": "view",
      "type": "function"
    },
    {
      "constant": true,
      "inputs": [],
      "name": "start",
      "outputs": [
        {
          "name": "",
          "type": "uint256"
        }
      ],
      "payable": false,
      "stateMutability": "view",
      "type": "function"
    },
    {
      "inputs": [
        {
          "name": "_purpose",
          "type": "address"
        },
        {
          "name": "_supplier",
          "type": "address"
        },
        {
          "name": "_start",
          "type": "uint256"
        },
        {
          "name": "_burnPercentYearly",
          "type": "uint256"
        }
      ],
      "payable": false,
      "stateMutability": "nonpayable",
      "type": "constructor"
    }
  ],
  "bytecode": "0x6060604052341561000f57600080fd5b6040516080806106da83398101604052808051906020019091908051906020019091908051906020019091908051906020019091905050600073ffffffffffffffffffffffffffffffffffffffff168473ffffffffffffffffffffffffffffffffffffffff161415151561008257600080fd5b600073ffffffffffffffffffffffffffffffffffffffff168373ffffffffffffffffffffffffffffffffffffffff16141515156100be57600080fd5b6000821115156100cd57600080fd5b6000811115156100dc57600080fd5b836000806101000a81548173ffffffffffffffffffffffffffffffffffffffff021916908373ffffffffffffffffffffffffffffffffffffffff16021790555082600160006101000a81548173ffffffffffffffffffffffffffffffffffffffff021916908373ffffffffffffffffffffffffffffffffffffffff16021790555081600281905550816003819055508060048190555050505050610555806101856000396000f300606060405260043610610083576000357c0100000000000000000000000000000000000000000000000000000000900463ffffffff16806336da44681461008857806344df8e70146100dd5780635d54f2b0146100f257806370740aab1461011b578063a07c7ce414610170578063bbce2c1714610199578063be9a6555146101c2575b600080fd5b341561009357600080fd5b61009b6101eb565b604051808273ffffffffffffffffffffffffffffffffffffffff1673ffffffffffffffffffffffffffffffffffffffff16815260200191505060405180910390f35b34156100e857600080fd5b6100f0610211565b005b34156100fd57600080fd5b6101056102f1565b6040518082815260200191505060405180910390f35b341561012657600080fd5b61012e6102f7565b604051808273ffffffffffffffffffffffffffffffffffffffff1673ffffffffffffffffffffffffffffffffffffffff16815260200191505060405180910390f35b341561017b57600080fd5b61018361031c565b6040518082815260200191505060405180910390f35b34156101a457600080fd5b6101ac6104ae565b6040518082815260200191505060405180910390f35b34156101cd57600080fd5b6101d56104b4565b6040518082815260200191505060405180910390f35b600160009054906101000a900473ffffffffffffffffffffffffffffffffffffffff1681565b600061021b61031c565b905060008111151561022c57600080fd5b6000809054906101000a900473ffffffffffffffffffffffffffffffffffffffff1673ffffffffffffffffffffffffffffffffffffffff16633516df21826000604051602001526040518263ffffffff167c010000000000000000000000000000000000000000000000000000000002815260040180828152602001915050602060405180830381600087803b15156102c457600080fd5b6102c65a03f115156102d557600080fd5b5050506040518051905015156102e757fe5b4260038190555050565b60045481565b6000809054906101000a900473ffffffffffffffffffffffffffffffffffffffff1681565b6000806000806000610339600354426104ba90919063ffffffff16565b93506103666301e13380610358600454876104d390919063ffffffff16565b61050e90919063ffffffff16565b92506000809054906101000a900473ffffffffffffffffffffffffffffffffffffffff1673ffffffffffffffffffffffffffffffffffffffff166370a08231600160009054906101000a900473ffffffffffffffffffffffffffffffffffffffff166000604051602001526040518263ffffffff167c0100000000000000000000000000000000000000000000000000000000028152600401808273ffffffffffffffffffffffffffffffffffffffff1673ffffffffffffffffffffffffffffffffffffffff168152602001915050602060405180830381600087803b151561044e57600080fd5b6102c65a03f1151561045f57600080fd5b505050604051805190509150610491606461048385856104d390919063ffffffff16565b61050e90919063ffffffff16565b9050818111156104a3578194506104a7565b8094505b5050505090565b60035481565b60025481565b60008282111515156104c857fe5b818303905092915050565b60008060008414156104e85760009150610507565b82840290508284828115156104f957fe5b0414151561050357fe5b8091505b5092915050565b600080828481151561051c57fe5b04905080915050929150505600a165627a7a723058206abc1c30173b8197dc8ca7983d9bd363fe04cd86c98741dad7ca3134999e77c40029",
  "source": "pragma solidity 0.4.18;\n\nimport \"zeppelin-solidity/contracts/math/SafeMath.sol\";\nimport \"./Purpose.sol\";\n\ncontract Burner {\n  using SafeMath for uint256;\n\n  Purpose public purpose;\n  address public supplier;\n  uint256 public start;\n  uint256 public lastBurn;\n  uint256 public burnPercentYearly;\n\n  function Burner (address _purpose, address _supplier, uint256 _start, uint256 _burnPercentYearly) {\n    require(_purpose != address(0));\n    require(_supplier != address(0));\n    require(_start > 0);\n    require(_burnPercentYearly > 0);\n\n    purpose = Purpose(_purpose);\n    supplier = _supplier;\n    start = _start;\n    lastBurn = _start;\n    burnPercentYearly = _burnPercentYearly;\n  }\n  \n  function burnable () constant public returns (uint256) {\n    // seconds since last burn\n    uint256 secsPassed = now.sub(lastBurn);\n    // how much percent to burn\n    uint256 percentToBurn = secsPassed.mul(burnPercentYearly).div(1 years);\n\n    // balance of supplier\n    uint256 balance = purpose.balanceOf(supplier);\n    // how much purpose to burn\n    uint256 amount = balance.mul(percentToBurn).div(100);\n\n    // return how much would be burned\n    if (amount > balance) {\n      return balance;\n    }\n    return amount;\n  }\n  \n  function burn () external {\n    // get how much purpose will be burned\n    uint256 amount = burnable();\n    require(amount > 0);\n\n    // burn purpose\n    assert(purpose.supplyBurn(amount));\n\n    // update state\n    lastBurn = now;\n  }\n}",
  "sourcePath": "/mnt/d/work/thesingularitygroup/projects/purpose/contracts/contracts/Burner.sol",
  "compiler": {
    "name": "solc",
    "version": "0.4.18+commit.9cf6e910.Emscripten.clang"
  },
  "schemaVersion": "1.0.1",
  "updatedAt": "2017-12-23T23:50:38.953Z"
}