{
  "contractName": "Crowdsale",
  "abi": [
    {
      "constant": true,
      "inputs": [],
      "name": "etherWeiRate",
      "outputs": [
        {
          "name": "",
          "type": "uint256"
        }
      ],
      "payable": false,
      "stateMutability": "view",
      "type": "function"
    },
    {
      "constant": false,
      "inputs": [],
      "name": "unpause",
      "outputs": [],
      "payable": false,
      "stateMutability": "nonpayable",
      "type": "function"
    },
    {
      "constant": true,
      "inputs": [],
      "name": "weiRaised",
      "outputs": [
        {
          "name": "",
          "type": "uint256"
        }
      ],
      "payable": false,
      "stateMutability": "view",
      "type": "function"
    },
    {
      "constant": true,
      "inputs": [],
      "name": "wallet",
      "outputs": [
        {
          "name": "",
          "type": "address"
        }
      ],
      "payable": false,
      "stateMutability": "view",
      "type": "function"
    },
    {
      "constant": true,
      "inputs": [],
      "name": "paused",
      "outputs": [
        {
          "name": "",
          "type": "bool"
        }
      ],
      "payable": false,
      "stateMutability": "view",
      "type": "function"
    },
    {
      "constant": false,
      "inputs": [],
      "name": "pause",
      "outputs": [],
      "payable": false,
      "stateMutability": "nonpayable",
      "type": "function"
    },
    {
      "constant": true,
      "inputs": [],
      "name": "owner",
      "outputs": [
        {
          "name": "",
          "type": "address"
        }
      ],
      "payable": false,
      "stateMutability": "view",
      "type": "function"
    },
    {
      "constant": false,
      "inputs": [
        {
          "name": "_wallet",
          "type": "address"
        }
      ],
      "name": "changeWallet",
      "outputs": [],
      "payable": false,
      "stateMutability": "nonpayable",
      "type": "function"
    },
    {
      "constant": true,
      "inputs": [],
      "name": "purposeWeiRate",
      "outputs": [
        {
          "name": "",
          "type": "uint256"
        }
      ],
      "payable": false,
      "stateMutability": "view",
      "type": "function"
    },
    {
      "constant": false,
      "inputs": [
        {
          "name": "_purposeWeiRate",
          "type": "uint256"
        },
        {
          "name": "_etherWeiRate",
          "type": "uint256"
        }
      ],
      "name": "changeRate",
      "outputs": [],
      "payable": false,
      "stateMutability": "nonpayable",
      "type": "function"
    },
    {
      "constant": false,
      "inputs": [
        {
          "name": "beneficiary",
          "type": "address"
        }
      ],
      "name": "buyTokens",
      "outputs": [],
      "payable": true,
      "stateMutability": "payable",
      "type": "function"
    },
    {
      "constant": true,
      "inputs": [],
      "name": "weiTokensRaised",
      "outputs": [
        {
          "name": "",
          "type": "uint256"
        }
      ],
      "payable": false,
      "stateMutability": "view",
      "type": "function"
    },
    {
      "constant": false,
      "inputs": [
        {
          "name": "newOwner",
          "type": "address"
        }
      ],
      "name": "transferOwnership",
      "outputs": [],
      "payable": false,
      "stateMutability": "nonpayable",
      "type": "function"
    },
    {
      "constant": true,
      "inputs": [],
      "name": "token",
      "outputs": [
        {
          "name": "",
          "type": "address"
        }
      ],
      "payable": false,
      "stateMutability": "view",
      "type": "function"
    },
    {
      "inputs": [
        {
          "name": "_wallet",
          "type": "address"
        },
        {
          "name": "_token",
          "type": "address"
        },
        {
          "name": "_purposeWeiRate",
          "type": "uint256"
        },
        {
          "name": "_etherWeiRate",
          "type": "uint256"
        }
      ],
      "payable": false,
      "stateMutability": "nonpayable",
      "type": "constructor"
    },
    {
      "payable": true,
      "stateMutability": "payable",
      "type": "fallback"
    },
    {
      "anonymous": false,
      "inputs": [
        {
          "indexed": true,
          "name": "purchaser",
          "type": "address"
        },
        {
          "indexed": true,
          "name": "beneficiary",
          "type": "address"
        },
        {
          "indexed": false,
          "name": "value",
          "type": "uint256"
        },
        {
          "indexed": false,
          "name": "amount",
          "type": "uint256"
        }
      ],
      "name": "TokenPurchase",
      "type": "event"
    },
    {
      "anonymous": false,
      "inputs": [],
      "name": "Pause",
      "type": "event"
    },
    {
      "anonymous": false,
      "inputs": [],
      "name": "Unpause",
      "type": "event"
    },
    {
      "anonymous": false,
      "inputs": [
        {
          "indexed": true,
          "name": "previousOwner",
          "type": "address"
        },
        {
          "indexed": true,
          "name": "newOwner",
          "type": "address"
        }
      ],
      "name": "OwnershipTransferred",
      "type": "event"
    }
  ],
  "bytecode": "0x606060405260008060146101000a81548160ff0219169083151502179055506006600355600160045560006005556000600655341561003d57600080fd5b604051608080610f5083398101604052808051906020019091908051906020019091908051906020019091908051906020019091905050336000806101000a81548173ffffffffffffffffffffffffffffffffffffffff021916908373ffffffffffffffffffffffffffffffffffffffff160217905550600073ffffffffffffffffffffffffffffffffffffffff168373ffffffffffffffffffffffffffffffffffffffff16141515156100f057600080fd5b61010c8461017364010000000002610745176401000000009004565b82600160006101000a81548173ffffffffffffffffffffffffffffffffffffffff021916908373ffffffffffffffffffffffffffffffffffffffff16021790555061016a828261024e64010000000002610826176401000000009004565b505050506102d9565b6000809054906101000a900473ffffffffffffffffffffffffffffffffffffffff1673ffffffffffffffffffffffffffffffffffffffff163373ffffffffffffffffffffffffffffffffffffffff161415156101ce57600080fd5b600073ffffffffffffffffffffffffffffffffffffffff168173ffffffffffffffffffffffffffffffffffffffff161415151561020a57600080fd5b80600260006101000a81548173ffffffffffffffffffffffffffffffffffffffff021916908373ffffffffffffffffffffffffffffffffffffffff16021790555050565b6000809054906101000a900473ffffffffffffffffffffffffffffffffffffffff1673ffffffffffffffffffffffffffffffffffffffff163373ffffffffffffffffffffffffffffffffffffffff161415156102a957600080fd5b6000821115156102b857600080fd5b6000811115156102c757600080fd5b81600381905550806004819055505050565b610c68806102e86000396000f3006060604052600436106100d0576000357c0100000000000000000000000000000000000000000000000000000000900463ffffffff168063118cbccb146100db5780633f4ba83a146101045780634042b66f14610119578063521eb273146101425780635c975abb146101975780638456cb59146101c45780638da5cb5b146101d957806398b9a2dc1461022e5780639e4c135714610267578063a883b0c414610290578063ec8ac4d8146102bc578063f13c8fef146102ea578063f2fde38b14610313578063fc0c546a1461034c575b6100d9336103a1565b005b34156100e657600080fd5b6100ee61055d565b6040518082815260200191505060405180910390f35b341561010f57600080fd5b610117610563565b005b341561012457600080fd5b61012c610621565b6040518082815260200191505060405180910390f35b341561014d57600080fd5b610155610627565b604051808273ffffffffffffffffffffffffffffffffffffffff1673ffffffffffffffffffffffffffffffffffffffff16815260200191505060405180910390f35b34156101a257600080fd5b6101aa61064d565b604051808215151515815260200191505060405180910390f35b34156101cf57600080fd5b6101d7610660565b005b34156101e457600080fd5b6101ec610720565b604051808273ffffffffffffffffffffffffffffffffffffffff1673ffffffffffffffffffffffffffffffffffffffff16815260200191505060405180910390f35b341561023957600080fd5b610265600480803573ffffffffffffffffffffffffffffffffffffffff16906020019091905050610745565b005b341561027257600080fd5b61027a610820565b6040518082815260200191505060405180910390f35b341561029b57600080fd5b6102ba6004808035906020019091908035906020019091905050610826565b005b6102e8600480803573ffffffffffffffffffffffffffffffffffffffff169060200190919050506103a1565b005b34156102f557600080fd5b6102fd6108b1565b6040518082815260200191505060405180910390f35b341561031e57600080fd5b61034a600480803573ffffffffffffffffffffffffffffffffffffffff169060200190919050506108b7565b005b341561035757600080fd5b61035f610a0c565b604051808273ffffffffffffffffffffffffffffffffffffffff1673ffffffffffffffffffffffffffffffffffffffff16815260200191505060405180910390f35b600080600060149054906101000a900460ff161515156103c057600080fd5b600073ffffffffffffffffffffffffffffffffffffffff168373ffffffffffffffffffffffffffffffffffffffff16141515156103fc57600080fd5b610404610a32565b151561040f57600080fd5b34915061043b60035461042d60045485610a5c90919063ffffffff16565b610a7790919063ffffffff16565b905061045282600554610ab290919063ffffffff16565b60058190555061046d81600654610ab290919063ffffffff16565b6006819055506104e36000809054906101000a900473ffffffffffffffffffffffffffffffffffffffff168483600160009054906101000a900473ffffffffffffffffffffffffffffffffffffffff1673ffffffffffffffffffffffffffffffffffffffff16610ad0909392919063ffffffff16565b8273ffffffffffffffffffffffffffffffffffffffff163373ffffffffffffffffffffffffffffffffffffffff167f623b3804fa71d67900d064613da8f94b9617215ee90799290593e1745087ad188484604051808381526020018281526020019250505060405180910390a3610558610bd8565b505050565b60045481565b6000809054906101000a900473ffffffffffffffffffffffffffffffffffffffff1673ffffffffffffffffffffffffffffffffffffffff163373ffffffffffffffffffffffffffffffffffffffff161415156105be57600080fd5b600060149054906101000a900460ff1615156105d957600080fd5b60008060146101000a81548160ff0219169083151502179055507f7805862f689e2f13df9f062ff482ad3ad112aca9e0847911ed832e158c525b3360405160405180910390a1565b60055481565b600260009054906101000a900473ffffffffffffffffffffffffffffffffffffffff1681565b600060149054906101000a900460ff1681565b6000809054906101000a900473ffffffffffffffffffffffffffffffffffffffff1673ffffffffffffffffffffffffffffffffffffffff163373ffffffffffffffffffffffffffffffffffffffff161415156106bb57600080fd5b600060149054906101000a900460ff161515156106d757600080fd5b6001600060146101000a81548160ff0219169083151502179055507f6985a02210a168e66602d3235cb6db0e70f92b3ba4d376a33c0f3d9434bff62560405160405180910390a1565b6000809054906101000a900473ffffffffffffffffffffffffffffffffffffffff1681565b6000809054906101000a900473ffffffffffffffffffffffffffffffffffffffff1673ffffffffffffffffffffffffffffffffffffffff163373ffffffffffffffffffffffffffffffffffffffff161415156107a057600080fd5b600073ffffffffffffffffffffffffffffffffffffffff168173ffffffffffffffffffffffffffffffffffffffff16141515156107dc57600080fd5b80600260006101000a81548173ffffffffffffffffffffffffffffffffffffffff021916908373ffffffffffffffffffffffffffffffffffffffff16021790555050565b60035481565b6000809054906101000a900473ffffffffffffffffffffffffffffffffffffffff1673ffffffffffffffffffffffffffffffffffffffff163373ffffffffffffffffffffffffffffffffffffffff1614151561088157600080fd5b60008211151561089057600080fd5b60008111151561089f57600080fd5b81600381905550806004819055505050565b60065481565b6000809054906101000a900473ffffffffffffffffffffffffffffffffffffffff1673ffffffffffffffffffffffffffffffffffffffff163373ffffffffffffffffffffffffffffffffffffffff1614151561091257600080fd5b600073ffffffffffffffffffffffffffffffffffffffff168173ffffffffffffffffffffffffffffffffffffffff161415151561094e57600080fd5b8073ffffffffffffffffffffffffffffffffffffffff166000809054906101000a900473ffffffffffffffffffffffffffffffffffffffff1673ffffffffffffffffffffffffffffffffffffffff167f8be0079c531659141344cd1fd0a4f28419497f9722a3daafe3b4186f6b6457e060405160405180910390a3806000806101000a81548173ffffffffffffffffffffffffffffffffffffffff021916908373ffffffffffffffffffffffffffffffffffffffff16021790555050565b600160009054906101000a900473ffffffffffffffffffffffffffffffffffffffff1681565b60008060003414159050600060149054906101000a900460ff16158015610a565750805b91505090565b6000808284811515610a6a57fe5b0490508091505092915050565b6000806000841415610a8c5760009150610aab565b8284029050828482811515610a9d57fe5b04141515610aa757fe5b8091505b5092915050565b6000808284019050838110151515610ac657fe5b8091505092915050565b8373ffffffffffffffffffffffffffffffffffffffff166323b872dd8484846000604051602001526040518463ffffffff167c0100000000000000000000000000000000000000000000000000000000028152600401808473ffffffffffffffffffffffffffffffffffffffff1673ffffffffffffffffffffffffffffffffffffffff1681526020018373ffffffffffffffffffffffffffffffffffffffff1673ffffffffffffffffffffffffffffffffffffffff1681526020018281526020019350505050602060405180830381600087803b1515610baf57600080fd5b6102c65a03f11515610bc057600080fd5b505050604051805190501515610bd257fe5b50505050565b600260009054906101000a900473ffffffffffffffffffffffffffffffffffffffff1673ffffffffffffffffffffffffffffffffffffffff166108fc349081150290604051600060405180830381858888f193505050501515610c3a57600080fd5b5600a165627a7a7230582062ffdbae0f4f1dac309c92531d7a4af3eb6fd34aafce92d4f9ba8efbcbe104320029",
  "source": "pragma solidity 0.4.18;\n\nimport \"zeppelin-solidity/contracts/math/SafeMath.sol\";\nimport \"zeppelin-solidity/contracts/ownership/Ownable.sol\";\nimport \"zeppelin-solidity/contracts/lifecycle/Pausable.sol\";\nimport \"zeppelin-solidity/contracts/token/ERC20.sol\";\nimport \"zeppelin-solidity/contracts/token/SafeERC20.sol\";\n\n\ncontract Crowdsale is Ownable, Pausable {\n  using SafeMath for uint256;\n  using SafeERC20 for ERC20;\n\n  // token being sold\n  ERC20 public token;\n\n  // address where funds are collected\n  address public wallet;\n\n  // rate 6/1 (6 token uints for 1 wei)\n  uint256 public purposeWeiRate = 6;\n  uint256 public etherWeiRate = 1;\n\n  // amount of raised wei\n  uint256 public weiRaised = 0;\n\n  // amount of tokens raised (in wei)\n  uint256 public weiTokensRaised = 0;\n\n  /**\n   * event for token purchase logging\n   * @param purchaser who paid for the tokens\n   * @param beneficiary who got the tokens\n   * @param value weis paid for purchase\n   * @param amount amount of tokens purchased\n   */\n  event TokenPurchase(address indexed purchaser, address indexed beneficiary, uint256 value, uint256 amount);\n\n  function Crowdsale(address _wallet, address _token, uint256 _purposeWeiRate, uint256 _etherWeiRate) public {\n    require(_token != address(0));\n\n    changeWallet(_wallet);\n    token = ERC20(_token);\n    changeRate(_purposeWeiRate, _etherWeiRate);\n  }\n\n  // fallback function can be used to buy tokens\n  function () external payable {\n    buyTokens(msg.sender);\n  }\n\n  // change wallet\n  function changeWallet(address _wallet) public onlyOwner {\n    require(_wallet != address(0));\n\n    wallet = _wallet;\n  }\n\n  // change rate\n  function changeRate(uint256 _purposeWeiRate, uint256 _etherWeiRate) public onlyOwner {\n    require(_purposeWeiRate > 0);\n    require(_etherWeiRate > 0);\n    \n    purposeWeiRate = _purposeWeiRate;\n    etherWeiRate = _etherWeiRate;\n  }\n\n  // low level token purchase function\n  function buyTokens(address beneficiary) public payable whenNotPaused {\n    require(beneficiary != address(0));\n    require(validPurchase());\n\n    uint256 weiAmount = msg.value;\n\n    // calculate token amount to be created\n    uint256 tokens = weiAmount.div(etherWeiRate).mul(purposeWeiRate);\n\n    // update state\n    weiRaised = weiRaised.add(weiAmount);\n    weiTokensRaised = weiTokensRaised.add(tokens);\n\n    // transfer\n    token.safeTransferFrom(owner, beneficiary, tokens);\n\n    // logs\n    TokenPurchase(msg.sender, beneficiary, weiAmount, tokens);\n\n    // forward funds to wallet\n    forwardFunds();\n  }\n\n  // send ether to the fund collection wallet\n  // override to create custom fund forwarding mechanisms\n  function forwardFunds() internal {\n    wallet.transfer(msg.value);\n  }\n\n  // @return true if the transaction can buy tokens\n  function validPurchase() internal view returns (bool) {\n    bool nonZeroPurchase = msg.value != 0;\n    return !paused && nonZeroPurchase;\n  }\n}",
  "sourcePath": "/mnt/d/work/thesingularitygroup/projects/purpose/contracts/contracts/Crowdsale.sol",
  "compiler": {
    "name": "solc",
    "version": "0.4.18+commit.9cf6e910.Emscripten.clang"
  },
  "schemaVersion": "1.0.1",
  "updatedAt": "2018-01-05T23:38:24.756Z"
}