{
  "contractName": "Gatherer",
  "abi": [
    {
      "constant": true,
      "inputs": [
        {
          "name": "addr",
          "type": "address"
        },
        {
          "name": "roleName",
          "type": "string"
        }
      ],
      "name": "checkRole",
      "outputs": [],
      "payable": false,
      "stateMutability": "view",
      "type": "function"
    },
    {
      "constant": true,
      "inputs": [
        {
          "name": "_user",
          "type": "address"
        }
      ],
      "name": "getItem",
      "outputs": [
        {
          "name": "",
          "type": "bool"
        },
        {
          "name": "",
          "type": "uint256"
        },
        {
          "name": "",
          "type": "address"
        },
        {
          "name": "",
          "type": "uint256"
        }
      ],
      "payable": false,
      "stateMutability": "view",
      "type": "function"
    },
    {
      "constant": true,
      "inputs": [],
      "name": "canChangeRate",
      "outputs": [
        {
          "name": "",
          "type": "bool"
        }
      ],
      "payable": false,
      "stateMutability": "view",
      "type": "function"
    },
    {
      "constant": true,
      "inputs": [
        {
          "name": "addr",
          "type": "address"
        },
        {
          "name": "roleName",
          "type": "string"
        }
      ],
      "name": "hasRole",
      "outputs": [
        {
          "name": "",
          "type": "bool"
        }
      ],
      "payable": false,
      "stateMutability": "view",
      "type": "function"
    },
    {
      "constant": false,
      "inputs": [],
      "name": "disableCanChangeRate",
      "outputs": [],
      "payable": false,
      "stateMutability": "nonpayable",
      "type": "function"
    },
    {
      "constant": true,
      "inputs": [],
      "name": "ubi",
      "outputs": [
        {
          "name": "",
          "type": "address"
        }
      ],
      "payable": false,
      "stateMutability": "view",
      "type": "function"
    },
    {
      "constant": true,
      "inputs": [],
      "name": "rate",
      "outputs": [
        {
          "name": "",
          "type": "uint256"
        }
      ],
      "payable": false,
      "stateMutability": "view",
      "type": "function"
    },
    {
      "constant": false,
      "inputs": [
        {
          "name": "_user",
          "type": "address"
        },
        {
          "name": "_taxReceiver",
          "type": "address"
        },
        {
          "name": "_taxPerwei",
          "type": "uint256"
        }
      ],
      "name": "changeTax",
      "outputs": [],
      "payable": false,
      "stateMutability": "nonpayable",
      "type": "function"
    },
    {
      "constant": true,
      "inputs": [
        {
          "name": "_user",
          "type": "address"
        }
      ],
      "name": "mintable",
      "outputs": [
        {
          "name": "",
          "type": "uint256"
        }
      ],
      "payable": false,
      "stateMutability": "view",
      "type": "function"
    },
    {
      "constant": false,
      "inputs": [
        {
          "name": "_rate",
          "type": "uint256"
        }
      ],
      "name": "changeRate",
      "outputs": [],
      "payable": false,
      "stateMutability": "nonpayable",
      "type": "function"
    },
    {
      "constant": false,
      "inputs": [
        {
          "name": "_user",
          "type": "address"
        }
      ],
      "name": "gatherFor",
      "outputs": [],
      "payable": false,
      "stateMutability": "nonpayable",
      "type": "function"
    },
    {
      "constant": false,
      "inputs": [],
      "name": "gather",
      "outputs": [],
      "payable": false,
      "stateMutability": "nonpayable",
      "type": "function"
    },
    {
      "constant": false,
      "inputs": [
        {
          "name": "addr",
          "type": "address"
        },
        {
          "name": "roleName",
          "type": "string"
        }
      ],
      "name": "adminRemoveRole",
      "outputs": [],
      "payable": false,
      "stateMutability": "nonpayable",
      "type": "function"
    },
    {
      "constant": false,
      "inputs": [
        {
          "name": "_user",
          "type": "address"
        },
        {
          "name": "_taxReceiver",
          "type": "address"
        },
        {
          "name": "_taxPerwei",
          "type": "uint256"
        }
      ],
      "name": "allow",
      "outputs": [],
      "payable": false,
      "stateMutability": "nonpayable",
      "type": "function"
    },
    {
      "constant": false,
      "inputs": [
        {
          "name": "_user",
          "type": "address"
        }
      ],
      "name": "disallow",
      "outputs": [],
      "payable": false,
      "stateMutability": "nonpayable",
      "type": "function"
    },
    {
      "constant": false,
      "inputs": [
        {
          "name": "addr",
          "type": "address"
        },
        {
          "name": "roleName",
          "type": "string"
        }
      ],
      "name": "adminAddRole",
      "outputs": [],
      "payable": false,
      "stateMutability": "nonpayable",
      "type": "function"
    },
    {
      "constant": true,
      "inputs": [
        {
          "name": "_user",
          "type": "address"
        }
      ],
      "name": "isAllowed",
      "outputs": [
        {
          "name": "",
          "type": "bool"
        }
      ],
      "payable": false,
      "stateMutability": "view",
      "type": "function"
    },
    {
      "constant": true,
      "inputs": [],
      "name": "ROLE_ADMIN",
      "outputs": [
        {
          "name": "",
          "type": "string"
        }
      ],
      "payable": false,
      "stateMutability": "view",
      "type": "function"
    },
    {
      "constant": false,
      "inputs": [
        {
          "name": "_users",
          "type": "address[]"
        }
      ],
      "name": "gatherForMulti",
      "outputs": [],
      "payable": false,
      "stateMutability": "nonpayable",
      "type": "function"
    },
    {
      "constant": true,
      "inputs": [],
      "name": "MAXPERWEI",
      "outputs": [
        {
          "name": "",
          "type": "uint256"
        }
      ],
      "payable": false,
      "stateMutability": "view",
      "type": "function"
    },
    {
      "inputs": [
        {
          "name": "_ubi",
          "type": "address"
        },
        {
          "name": "_rate",
          "type": "uint256"
        }
      ],
      "payable": false,
      "stateMutability": "nonpayable",
      "type": "constructor"
    },
    {
      "anonymous": false,
      "inputs": [
        {
          "indexed": false,
          "name": "addr",
          "type": "address"
        },
        {
          "indexed": false,
          "name": "roleName",
          "type": "string"
        }
      ],
      "name": "RoleAdded",
      "type": "event"
    },
    {
      "anonymous": false,
      "inputs": [
        {
          "indexed": false,
          "name": "addr",
          "type": "address"
        },
        {
          "indexed": false,
          "name": "roleName",
          "type": "string"
        }
      ],
      "name": "RoleRemoved",
      "type": "event"
    }
  ],
  "bytecode": "0x60606040526001600460006101000a81548160ff02191690831515021790555034156200002b57600080fd5b60405160408062001c6a83398101604052808051906020019091908051906020019091905050620000a6336040805190810160405280600581526020017f61646d696e0000000000000000000000000000000000000000000000000000008152506200014b6401000000000262001556176401000000009004565b600073ffffffffffffffffffffffffffffffffffffffff168273ffffffffffffffffffffffffffffffffffffffff1614151515620000e357600080fd5b81600260006101000a81548173ffffffffffffffffffffffffffffffffffffffff021916908373ffffffffffffffffffffffffffffffffffffffff1602179055506200014381620002b16401000000000262000b8b176401000000009004565b5050620004cb565b620001da826000836040518082805190602001908083835b6020831015156200018a578051825260208201915060208101905060208303925062000163565b6001836020036101000a0380198251168184511680821785525050505050509050019150509081526020016040518091039020620003516401000000000262001705179091906401000000009004565b7fbfec83d64eaa953f2708271a023ab9ee82057f8f3578d548c1a4ba0b5b7004898282604051808373ffffffffffffffffffffffffffffffffffffffff1673ffffffffffffffffffffffffffffffffffffffff16815260200180602001828103825283818151815260200191508051906020019080838360005b838110156200027157808201518184015260208101905062000254565b50505050905090810190601f1680156200029f5780820380516001836020036101000a031916815260200191505b50935050505060405180910390a15050565b62000306336040805190810160405280600581526020017f61646d696e000000000000000000000000000000000000000000000000000000815250620003af6401000000000262000760176401000000009004565b62c18a8c81101580156200031f5750641d88341b9c8111155b15156200032b57600080fd5b600460009054906101000a900460ff1615156200034757600080fd5b8060038190555050565b60018260000160008373ffffffffffffffffffffffffffffffffffffffff1673ffffffffffffffffffffffffffffffffffffffff16815260200190815260200160002060006101000a81548160ff0219169083151502179055505050565b6200043e826000836040518082805190602001908083835b602083101515620003ee5780518252602082019150602081019050602083039250620003c7565b6001836020036101000a0380198251168184511680821785525050505050509050019150509081526020016040518091039020620004426401000000000262001324179091906401000000009004565b5050565b62000462828262000472640100000000026200133d176401000000009004565b15156200046e57600080fd5b5050565b60008260000160008373ffffffffffffffffffffffffffffffffffffffff1673ffffffffffffffffffffffffffffffffffffffff16815260200190815260200160002060009054906101000a900460ff16905092915050565b61178f80620004db6000396000f300606060405260043610610112576000357c0100000000000000000000000000000000000000000000000000000000900463ffffffff1680630988ca8c1461011757806314d8c9811461019357806315b9d7f614610225578063217fe6c6146102525780632c1a1d1e146102e65780632c3a03a7146102fb5780632c4e722e1461035057806352930fdf1461037957806359441eae146103da57806374e7493b1461042757806376f35f281461044a5780637cb834e31461048357806388cee87e14610498578063a79fafa414610514578063a9ed9cb814610575578063b25fa92c146105ae578063babcc5391461062a578063d391014b1461067b578063eeee164d14610709578063f2cf687a14610737575b600080fd5b341561012257600080fd5b610191600480803573ffffffffffffffffffffffffffffffffffffffff1690602001909190803590602001908201803590602001908080601f01602080910402602001604051908101604052809392919081815260200183838082843782019150505050505091905050610760565b005b341561019e57600080fd5b6101ca600480803573ffffffffffffffffffffffffffffffffffffffff169060200190919050506107e1565b60405180851515151581526020018481526020018373ffffffffffffffffffffffffffffffffffffffff1673ffffffffffffffffffffffffffffffffffffffff16815260200182815260200194505050505060405180910390f35b341561023057600080fd5b61023861087b565b604051808215151515815260200191505060405180910390f35b341561025d57600080fd5b6102cc600480803573ffffffffffffffffffffffffffffffffffffffff1690602001909190803590602001908201803590602001908080601f0160208091040260200160405190810160405280939291908181526020018383808284378201915050505050509190505061088e565b604051808215151515815260200191505060405180910390f35b34156102f157600080fd5b6102f9610915565b005b341561030657600080fd5b61030e610971565b604051808273ffffffffffffffffffffffffffffffffffffffff1673ffffffffffffffffffffffffffffffffffffffff16815260200191505060405180910390f35b341561035b57600080fd5b610363610997565b6040518082815260200191505060405180910390f35b341561038457600080fd5b6103d8600480803573ffffffffffffffffffffffffffffffffffffffff1690602001909190803573ffffffffffffffffffffffffffffffffffffffff1690602001909190803590602001909190505061099d565b005b34156103e557600080fd5b610411600480803573ffffffffffffffffffffffffffffffffffffffff16906020019091905050610ad1565b6040518082815260200191505060405180910390f35b341561043257600080fd5b6104486004808035906020019091905050610b8b565b005b341561045557600080fd5b610481600480803573ffffffffffffffffffffffffffffffffffffffff16906020019091905050610c12565b005b341561048e57600080fd5b610496610f7c565b005b34156104a357600080fd5b610512600480803573ffffffffffffffffffffffffffffffffffffffff1690602001909190803590602001908201803590602001908080601f01602080910402602001604051908101604052809392919081815260200183838082843782019150505050505091905050610f87565b005b341561051f57600080fd5b610573600480803573ffffffffffffffffffffffffffffffffffffffff1690602001909190803573ffffffffffffffffffffffffffffffffffffffff16906020019091908035906020019091905050610fd4565b005b341561058057600080fd5b6105ac600480803573ffffffffffffffffffffffffffffffffffffffff169060200190919050506110e7565b005b34156105b957600080fd5b610628600480803573ffffffffffffffffffffffffffffffffffffffff1690602001909190803590602001908201803590602001908080601f016020809104026020016040519081016040528093929190818152602001838380828437820191505050505050919050506111e3565b005b341561063557600080fd5b610661600480803573ffffffffffffffffffffffffffffffffffffffff16906020019091905050611230565b604051808215151515815260200191505060405180910390f35b341561068657600080fd5b61068e611289565b6040518080602001828103825283818151815260200191508051906020019080838360005b838110156106ce5780820151818401526020810190506106b3565b50505050905090810190601f1680156106fb5780820380516001836020036101000a031916815260200191505b509250505060405180910390f35b341561071457600080fd5b610735600480803590602001908201803590602001919091929050506112c2565b005b341561074257600080fd5b61074a611318565b6040518082815260200191505060405180910390f35b6107dd826000836040518082805190602001908083835b60208310151561079c5780518252602082019150602081019050602083039250610777565b6001836020036101000a038019825116818451168082178552505050505050905001915050908152602001604051809103902061132490919063ffffffff16565b5050565b6000806000806000600160008773ffffffffffffffffffffffffffffffffffffffff1673ffffffffffffffffffffffffffffffffffffffff16815260200190815260200160002090508060000160009054906101000a900460ff1681600101548260020160009054906101000a900473ffffffffffffffffffffffffffffffffffffffff1683600301549450945094509450509193509193565b600460009054906101000a900460ff1681565b600061090d836000846040518082805190602001908083835b6020831015156108cc57805182526020820191506020810190506020830392506108a7565b6001836020036101000a038019825116818451168082178552505050505050905001915050908152602001604051809103902061133d90919063ffffffff16565b905092915050565b610954336040805190810160405280600581526020017f61646d696e000000000000000000000000000000000000000000000000000000815250610760565b6000600460006101000a81548160ff021916908315150217905550565b600260009054906101000a900473ffffffffffffffffffffffffffffffffffffffff1681565b60035481565b60006109de336040805190810160405280600581526020017f61646d696e000000000000000000000000000000000000000000000000000000815250610760565b600073ffffffffffffffffffffffffffffffffffffffff168473ffffffffffffffffffffffffffffffffffffffff1614151515610a1a57600080fd5b60008210158015610a335750670de0b6b3a76400008211155b1515610a3e57600080fd5b600160008573ffffffffffffffffffffffffffffffffffffffff1673ffffffffffffffffffffffffffffffffffffffff1681526020019081526020016000209050828160020160006101000a81548173ffffffffffffffffffffffffffffffffffffffff021916908373ffffffffffffffffffffffffffffffffffffffff16021790555081816003018190555050505050565b600080600080600160008673ffffffffffffffffffffffffffffffffffffffff1673ffffffffffffffffffffffffffffffffffffffff16815260200190815260200160002092508260000160009054906101000a900460ff161515610b395760009350610b83565b428360010154101515610b4f5760009350610b83565b610b6683600101544261139690919063ffffffff16565b9150610b7d600354836113af90919063ffffffff16565b90508093505b505050919050565b610bca336040805190810160405280600581526020017f61646d696e000000000000000000000000000000000000000000000000000000815250610760565b62c18a8c8110158015610be25750641d88341b9c8111155b1515610bed57600080fd5b600460009054906101000a900460ff161515610c0857600080fd5b8060038190555050565b60008060008073ffffffffffffffffffffffffffffffffffffffff168473ffffffffffffffffffffffffffffffffffffffff1614151515610c5257600080fd5b600160008573ffffffffffffffffffffffffffffffffffffffff1673ffffffffffffffffffffffffffffffffffffffff1681526020019081526020016000209250610c9c84610ad1565b915060009050600073ffffffffffffffffffffffffffffffffffffffff168360020160009054906101000a900473ffffffffffffffffffffffffffffffffffffffff1673ffffffffffffffffffffffffffffffffffffffff1614158015610d07575060008360030154115b15610d5557610d3d670de0b6b3a7640000610d2f8560030154856113af90919063ffffffff16565b6113ea90919063ffffffff16565b9050610d52818361139690919063ffffffff16565b91505b4283600101819055506000821115610e5857600260009054906101000a900473ffffffffffffffffffffffffffffffffffffffff1673ffffffffffffffffffffffffffffffffffffffff1663c784dd2c85846000604051602001526040518363ffffffff167c0100000000000000000000000000000000000000000000000000000000028152600401808373ffffffffffffffffffffffffffffffffffffffff1673ffffffffffffffffffffffffffffffffffffffff16815260200182815260200192505050602060405180830381600087803b1515610e3457600080fd5b6102c65a03f11515610e4557600080fd5b505050604051805190501515610e5757fe5b5b6000811115610f7657600260009054906101000a900473ffffffffffffffffffffffffffffffffffffffff1673ffffffffffffffffffffffffffffffffffffffff1663c784dd2c8460020160009054906101000a900473ffffffffffffffffffffffffffffffffffffffff16836000604051602001526040518363ffffffff167c0100000000000000000000000000000000000000000000000000000000028152600401808373ffffffffffffffffffffffffffffffffffffffff1673ffffffffffffffffffffffffffffffffffffffff16815260200182815260200192505050602060405180830381600087803b1515610f5257600080fd5b6102c65a03f11515610f6357600080fd5b505050604051805190501515610f7557fe5b5b50505050565b610f8533610c12565b565b610fc6336040805190810160405280600581526020017f61646d696e000000000000000000000000000000000000000000000000000000815250610760565b610fd08282611405565b5050565b6000611015336040805190810160405280600581526020017f61646d696e000000000000000000000000000000000000000000000000000000815250610760565b600073ffffffffffffffffffffffffffffffffffffffff168473ffffffffffffffffffffffffffffffffffffffff161415151561105157600080fd5b600160008573ffffffffffffffffffffffffffffffffffffffff1673ffffffffffffffffffffffffffffffffffffffff16815260200190815260200160002090508060000160009054906101000a900460ff161515156110b057600080fd5b60018160000160006101000a81548160ff0219169083151502179055504281600101819055506110e184848461099d565b50505050565b6000611128336040805190810160405280600581526020017f61646d696e000000000000000000000000000000000000000000000000000000815250610760565b600073ffffffffffffffffffffffffffffffffffffffff168273ffffffffffffffffffffffffffffffffffffffff161415151561116457600080fd5b600160008373ffffffffffffffffffffffffffffffffffffffff1673ffffffffffffffffffffffffffffffffffffffff16815260200190815260200160002090508060000160009054906101000a900460ff1615156111c257600080fd5b60008160000160006101000a81548160ff0219169083151502179055505050565b611222336040805190810160405280600581526020017f61646d696e000000000000000000000000000000000000000000000000000000815250610760565b61122c8282611556565b5050565b6000600160008373ffffffffffffffffffffffffffffffffffffffff1673ffffffffffffffffffffffffffffffffffffffff16815260200190815260200160002060000160009054906101000a900460ff169050919050565b6040805190810160405280600581526020017f61646d696e00000000000000000000000000000000000000000000000000000081525081565b60008090505b828290508110156113135761130683838381811015156112e457fe5b9050602002013573ffffffffffffffffffffffffffffffffffffffff16610c12565b80806001019150506112c8565b505050565b670de0b6b3a764000081565b61132e828261133d565b151561133957600080fd5b5050565b60008260000160008373ffffffffffffffffffffffffffffffffffffffff1673ffffffffffffffffffffffffffffffffffffffff16815260200190815260200160002060009054906101000a900460ff16905092915050565b60008282111515156113a457fe5b818303905092915050565b60008060008414156113c457600091506113e3565b82840290508284828115156113d557fe5b041415156113df57fe5b8091505b5092915050565b60008082848115156113f857fe5b0490508091505092915050565b611482826000836040518082805190602001908083835b602083101515611441578051825260208201915060208101905060208303925061141c565b6001836020036101000a03801982511681845116808217855250505050505090500191505090815260200160405180910390206116a790919063ffffffff16565b7fd211483f91fc6eff862467f8de606587a30c8fc9981056f051b897a418df803a8282604051808373ffffffffffffffffffffffffffffffffffffffff1673ffffffffffffffffffffffffffffffffffffffff16815260200180602001828103825283818151815260200191508051906020019080838360005b838110156115175780820151818401526020810190506114fc565b50505050905090810190601f1680156115445780820380516001836020036101000a031916815260200191505b50935050505060405180910390a15050565b6115d3826000836040518082805190602001908083835b602083101515611592578051825260208201915060208101905060208303925061156d565b6001836020036101000a038019825116818451168082178552505050505050905001915050908152602001604051809103902061170590919063ffffffff16565b7fbfec83d64eaa953f2708271a023ab9ee82057f8f3578d548c1a4ba0b5b7004898282604051808373ffffffffffffffffffffffffffffffffffffffff1673ffffffffffffffffffffffffffffffffffffffff16815260200180602001828103825283818151815260200191508051906020019080838360005b8381101561166857808201518184015260208101905061164d565b50505050905090810190601f1680156116955780820380516001836020036101000a031916815260200191505b50935050505060405180910390a15050565b60008260000160008373ffffffffffffffffffffffffffffffffffffffff1673ffffffffffffffffffffffffffffffffffffffff16815260200190815260200160002060006101000a81548160ff0219169083151502179055505050565b60018260000160008373ffffffffffffffffffffffffffffffffffffffff1673ffffffffffffffffffffffffffffffffffffffff16815260200190815260200160002060006101000a81548160ff02191690831515021790555050505600a165627a7a72305820969063b49f64c44f6aae11e0fbf28c4a4d7820aee0e1b4bf218ec7e277a189f70029",
  "source": "pragma solidity 0.4.18;\n\nimport \"zeppelin-solidity/contracts/math/SafeMath.sol\";\nimport \"zeppelin-solidity/contracts/ownership/rbac/RBAC.sol\";\nimport \"./Ubi.sol\";\n\n\ncontract Gatherer is RBAC {\n  using SafeMath for uint256;\n\n  struct Item {\n    bool allowed;\n    uint256 lastGather;\n    address taxReceiver;\n    uint256 taxPerwei;\n  }\n\n  mapping(address => Item) private items;\n\n  Ubi public ubi;\n  uint256 public rate;\n  bool public canChangeRate = true;\n  uint256 constant public MAXPERWEI = 1 ether;\n\n  function Gatherer(address _ubi, uint256 _rate) {\n    require(_ubi != address(0));\n\n    ubi = Ubi(_ubi);\n    changeRate(_rate);\n  }\n\n  // this makes it impossible to change the rate\n  function disableCanChangeRate() external onlyAdmin {\n    canChangeRate = false;\n  }\n\n  // change the rate in which ubi is minted\n  function changeRate(uint256 _rate) public onlyAdmin {\n    require(_rate >= 12683916 && _rate <= 126839167900);\n    require(canChangeRate);\n\n    rate = _rate;\n  }\n  \n  // allow user to gather ubi\n  function allow(address _user, address _taxReceiver, uint256 _taxPerwei) external onlyAdmin {\n    require(_user != address(0));\n\n    Item item = items[_user];\n    require(!item.allowed);\n\n    item.allowed = true;\n    item.lastGather = now;\n    changeTax(_user, _taxReceiver, _taxPerwei);\n  }\n\n  // disallow user from gathering ubi\n  function disallow(address _user) external onlyAdmin {\n    require(_user != address(0));\n\n    Item item = items[_user];\n    require(item.allowed);\n\n    item.allowed = false;\n  }\n\n  // change users tax\n  function changeTax(address _user, address _taxReceiver, uint256 _taxPerwei) public onlyAdmin {\n    require(_user != address(0));\n    require(_taxPerwei >= 0 && _taxPerwei <= MAXPERWEI);\n\n    Item item = items[_user];\n\n    item.taxReceiver = _taxReceiver;\n    item.taxPerwei = _taxPerwei;\n  }\n\n  // true if user is allowed to gather\n  function isAllowed(address _user) public view returns (bool) {\n    return items[_user].allowed;\n  }\n\n  // returns user's item\n  function getItem(address _user) public view returns (bool, uint256, address, uint256) {\n    Item item = items[_user];\n\n    return (\n      item.allowed,\n      item.lastGather,\n      item.taxReceiver,\n      item.taxPerwei\n    );\n  }\n\n  // returns total amount that will be minted\n  function mintable(address _user) public view returns (uint256) {\n    Item item = items[_user];\n\n    if (!item.allowed) return 0;\n    if (item.lastGather >= now) return 0;\n\n    // get seconds difference from lastGather\n    uint256 secsDiff = now.sub(item.lastGather);\n    // get amount to mint\n    uint256 amount = secsDiff.mul(rate);\n\n    return amount;\n  }\n\n  // gathers (mints) ubi\n  function gatherFor(address _user) public {\n    require(_user != address(0));\n \n    // get total mint amount\n    Item item = items[_user];\n    uint256 userAmount = mintable(_user);\n    uint256 taxAmount = 0;\n\n    // calculate tax amount and update amounts\n    if (item.taxReceiver != address(0) && item.taxPerwei > 0) {\n      taxAmount = userAmount.mul(item.taxPerwei).div(MAXPERWEI);\n      userAmount = userAmount.sub(taxAmount);\n    }\n\n    // update state\n    item.lastGather = now;\n\n    // mint ubi\n    if (userAmount > 0) {\n      assert(ubi.mintUbi(_user, userAmount));\n    }\n    \n    if (taxAmount > 0) {\n      assert(ubi.mintUbi(item.taxReceiver, taxAmount));  \n    }\n  }\n\n  // gatherFor sender\n  function gather() external {\n    gatherFor(msg.sender);\n  }\n\n  // input accepts an array of users and then calls gatherFor\n  function gatherForMulti(address[] _users) external {\n    uint256 i = 0;\n    while (i < _users.length) {\n      gatherFor(_users[i]);\n      i++;\n    }\n  }\n}",
  "sourcePath": "/mnt/d/work/thesingularitygroup/projects/purpose/contracts/contracts/Gatherer.sol",
  "compiler": {
    "name": "solc",
    "version": "0.4.18+commit.9cf6e910.Emscripten.clang"
  },
  "schemaVersion": "1.0.1",
  "updatedAt": "2017-12-27T16:07:59.564Z"
}