{
  "contractName": "Gatherer",
  "abi": [
    {
      "constant": true,
      "inputs": [
        {
          "name": "addr",
          "type": "address"
        },
        {
          "name": "roleName",
          "type": "string"
        }
      ],
      "name": "checkRole",
      "outputs": [],
      "payable": false,
      "stateMutability": "view",
      "type": "function"
    },
    {
      "constant": true,
      "inputs": [],
      "name": "canChangeRate",
      "outputs": [
        {
          "name": "",
          "type": "bool"
        }
      ],
      "payable": false,
      "stateMutability": "view",
      "type": "function"
    },
    {
      "constant": true,
      "inputs": [
        {
          "name": "addr",
          "type": "address"
        },
        {
          "name": "roleName",
          "type": "string"
        }
      ],
      "name": "hasRole",
      "outputs": [
        {
          "name": "",
          "type": "bool"
        }
      ],
      "payable": false,
      "stateMutability": "view",
      "type": "function"
    },
    {
      "constant": false,
      "inputs": [],
      "name": "disableCanChangeRate",
      "outputs": [],
      "payable": false,
      "stateMutability": "nonpayable",
      "type": "function"
    },
    {
      "constant": true,
      "inputs": [],
      "name": "ubi",
      "outputs": [
        {
          "name": "",
          "type": "address"
        }
      ],
      "payable": false,
      "stateMutability": "view",
      "type": "function"
    },
    {
      "constant": true,
      "inputs": [],
      "name": "rate",
      "outputs": [
        {
          "name": "",
          "type": "uint256"
        }
      ],
      "payable": false,
      "stateMutability": "view",
      "type": "function"
    },
    {
      "constant": false,
      "inputs": [
        {
          "name": "_user",
          "type": "address"
        },
        {
          "name": "_taxReceiver",
          "type": "address"
        },
        {
          "name": "_taxPerwei",
          "type": "uint256"
        }
      ],
      "name": "changeTax",
      "outputs": [],
      "payable": false,
      "stateMutability": "nonpayable",
      "type": "function"
    },
    {
      "constant": false,
      "inputs": [
        {
          "name": "_users",
          "type": "address[]"
        }
      ],
      "name": "gatherForMutli",
      "outputs": [],
      "payable": false,
      "stateMutability": "nonpayable",
      "type": "function"
    },
    {
      "constant": false,
      "inputs": [
        {
          "name": "_rate",
          "type": "uint256"
        }
      ],
      "name": "changeRate",
      "outputs": [],
      "payable": false,
      "stateMutability": "nonpayable",
      "type": "function"
    },
    {
      "constant": false,
      "inputs": [
        {
          "name": "_user",
          "type": "address"
        }
      ],
      "name": "gatherFor",
      "outputs": [],
      "payable": false,
      "stateMutability": "nonpayable",
      "type": "function"
    },
    {
      "constant": false,
      "inputs": [],
      "name": "gather",
      "outputs": [],
      "payable": false,
      "stateMutability": "nonpayable",
      "type": "function"
    },
    {
      "constant": false,
      "inputs": [
        {
          "name": "addr",
          "type": "address"
        },
        {
          "name": "roleName",
          "type": "string"
        }
      ],
      "name": "adminRemoveRole",
      "outputs": [],
      "payable": false,
      "stateMutability": "nonpayable",
      "type": "function"
    },
    {
      "constant": false,
      "inputs": [
        {
          "name": "_user",
          "type": "address"
        },
        {
          "name": "_taxReceiver",
          "type": "address"
        },
        {
          "name": "_taxPerwei",
          "type": "uint256"
        }
      ],
      "name": "allow",
      "outputs": [],
      "payable": false,
      "stateMutability": "nonpayable",
      "type": "function"
    },
    {
      "constant": false,
      "inputs": [
        {
          "name": "_user",
          "type": "address"
        }
      ],
      "name": "disallow",
      "outputs": [],
      "payable": false,
      "stateMutability": "nonpayable",
      "type": "function"
    },
    {
      "constant": false,
      "inputs": [
        {
          "name": "addr",
          "type": "address"
        },
        {
          "name": "roleName",
          "type": "string"
        }
      ],
      "name": "adminAddRole",
      "outputs": [],
      "payable": false,
      "stateMutability": "nonpayable",
      "type": "function"
    },
    {
      "constant": true,
      "inputs": [
        {
          "name": "_user",
          "type": "address"
        }
      ],
      "name": "isAllowed",
      "outputs": [
        {
          "name": "",
          "type": "bool"
        }
      ],
      "payable": false,
      "stateMutability": "view",
      "type": "function"
    },
    {
      "constant": true,
      "inputs": [],
      "name": "ROLE_ADMIN",
      "outputs": [
        {
          "name": "",
          "type": "string"
        }
      ],
      "payable": false,
      "stateMutability": "view",
      "type": "function"
    },
    {
      "inputs": [
        {
          "name": "_ubi",
          "type": "address"
        },
        {
          "name": "_rate",
          "type": "uint256"
        }
      ],
      "payable": false,
      "stateMutability": "nonpayable",
      "type": "constructor"
    },
    {
      "anonymous": false,
      "inputs": [
        {
          "indexed": false,
          "name": "addr",
          "type": "address"
        },
        {
          "indexed": false,
          "name": "roleName",
          "type": "string"
        }
      ],
      "name": "RoleAdded",
      "type": "event"
    },
    {
      "anonymous": false,
      "inputs": [
        {
          "indexed": false,
          "name": "addr",
          "type": "address"
        },
        {
          "indexed": false,
          "name": "roleName",
          "type": "string"
        }
      ],
      "name": "RoleRemoved",
      "type": "event"
    }
  ],
  "bytecode": "0x60606040526001600460006101000a81548160ff02191690831515021790555034156200002b57600080fd5b60405160408062001a3a83398101604052808051906020019091908051906020019091905050620000a6336040805190810160405280600581526020017f61646d696e0000000000000000000000000000000000000000000000000000008152506200014b6401000000000262001325176401000000009004565b600073ffffffffffffffffffffffffffffffffffffffff168273ffffffffffffffffffffffffffffffffffffffff1614151515620000e357600080fd5b81600260006101000a81548173ffffffffffffffffffffffffffffffffffffffff021916908373ffffffffffffffffffffffffffffffffffffffff1602179055506200014381620002b16401000000000262000964176401000000009004565b5050620004cc565b620001da826000836040518082805190602001908083835b6020831015156200018a578051825260208201915060208101905060208303925062000163565b6001836020036101000a03801982511681845116808217855250505050505090500191505090815260200160405180910390206200035264010000000002620014d4179091906401000000009004565b7fbfec83d64eaa953f2708271a023ab9ee82057f8f3578d548c1a4ba0b5b7004898282604051808373ffffffffffffffffffffffffffffffffffffffff1673ffffffffffffffffffffffffffffffffffffffff16815260200180602001828103825283818151815260200191508051906020019080838360005b838110156200027157808201518184015260208101905062000254565b50505050905090810190601f1680156200029f5780820380516001836020036101000a031916815260200191505b50935050505060405180910390a15050565b62000306336040805190810160405280600581526020017f61646d696e000000000000000000000000000000000000000000000000000000815250620003b06401000000000262000637176401000000009004565b62c18a8c8110158015620003205750650127520914188111155b15156200032c57600080fd5b600460009054906101000a900460ff1615156200034857600080fd5b8060038190555050565b60018260000160008373ffffffffffffffffffffffffffffffffffffffff1673ffffffffffffffffffffffffffffffffffffffff16815260200190815260200160002060006101000a81548160ff0219169083151502179055505050565b6200043f826000836040518082805190602001908083835b602083101515620003ef5780518252602082019150602081019050602083039250620003c8565b6001836020036101000a03801982511681845116808217855250505050505090500191505090815260200160405180910390206200044364010000000002620010f3179091906401000000009004565b5050565b62000463828262000473640100000000026200110c176401000000009004565b15156200046f57600080fd5b5050565b60008260000160008373ffffffffffffffffffffffffffffffffffffffff1673ffffffffffffffffffffffffffffffffffffffff16815260200190815260200160002060009054906101000a900460ff16905092915050565b61155e80620004dc6000396000f3006060604052600436106100f1576000357c0100000000000000000000000000000000000000000000000000000000900463ffffffff1680630988ca8c146100f657806315b9d7f614610172578063217fe6c61461019f5780632c1a1d1e146102335780632c3a03a7146102485780632c4e722e1461029d57806352930fdf146102c65780636599fc3f1461032757806374e7493b1461035557806376f35f28146103785780637cb834e3146103b157806388cee87e146103c6578063a79fafa414610442578063a9ed9cb8146104a3578063b25fa92c146104dc578063babcc53914610558578063d391014b146105a9575b600080fd5b341561010157600080fd5b610170600480803573ffffffffffffffffffffffffffffffffffffffff1690602001909190803590602001908201803590602001908080601f01602080910402602001604051908101604052809392919081815260200183838082843782019150505050505091905050610637565b005b341561017d57600080fd5b6101856106b8565b604051808215151515815260200191505060405180910390f35b34156101aa57600080fd5b610219600480803573ffffffffffffffffffffffffffffffffffffffff1690602001909190803590602001908201803590602001908080601f016020809104026020016040519081016040528093929190818152602001838380828437820191505050505050919050506106cb565b604051808215151515815260200191505060405180910390f35b341561023e57600080fd5b610246610752565b005b341561025357600080fd5b61025b6107ae565b604051808273ffffffffffffffffffffffffffffffffffffffff1673ffffffffffffffffffffffffffffffffffffffff16815260200191505060405180910390f35b34156102a857600080fd5b6102b06107d4565b6040518082815260200191505060405180910390f35b34156102d157600080fd5b610325600480803573ffffffffffffffffffffffffffffffffffffffff1690602001909190803573ffffffffffffffffffffffffffffffffffffffff169060200190919080359060200190919050506107da565b005b341561033257600080fd5b6103536004808035906020019082018035906020019190919290505061090e565b005b341561036057600080fd5b6103766004808035906020019091905050610964565b005b341561038357600080fd5b6103af600480803573ffffffffffffffffffffffffffffffffffffffff169060200190919050506109ec565b005b34156103bc57600080fd5b6103c4610dad565b005b34156103d157600080fd5b610440600480803573ffffffffffffffffffffffffffffffffffffffff1690602001909190803590602001908201803590602001908080601f01602080910402602001604051908101604052809392919081815260200183838082843782019150505050505091905050610db8565b005b341561044d57600080fd5b6104a1600480803573ffffffffffffffffffffffffffffffffffffffff1690602001909190803573ffffffffffffffffffffffffffffffffffffffff16906020019091908035906020019091905050610e05565b005b34156104ae57600080fd5b6104da600480803573ffffffffffffffffffffffffffffffffffffffff16906020019091905050610f18565b005b34156104e757600080fd5b610556600480803573ffffffffffffffffffffffffffffffffffffffff1690602001909190803590602001908201803590602001908080601f01602080910402602001604051908101604052809392919081815260200183838082843782019150505050505091905050611014565b005b341561056357600080fd5b61058f600480803573ffffffffffffffffffffffffffffffffffffffff16906020019091905050611061565b604051808215151515815260200191505060405180910390f35b34156105b457600080fd5b6105bc6110ba565b6040518080602001828103825283818151815260200191508051906020019080838360005b838110156105fc5780820151818401526020810190506105e1565b50505050905090810190601f1680156106295780820380516001836020036101000a031916815260200191505b509250505060405180910390f35b6106b4826000836040518082805190602001908083835b602083101515610673578051825260208201915060208101905060208303925061064e565b6001836020036101000a03801982511681845116808217855250505050505090500191505090815260200160405180910390206110f390919063ffffffff16565b5050565b600460009054906101000a900460ff1681565b600061074a836000846040518082805190602001908083835b60208310151561070957805182526020820191506020810190506020830392506106e4565b6001836020036101000a038019825116818451168082178552505050505050905001915050908152602001604051809103902061110c90919063ffffffff16565b905092915050565b610791336040805190810160405280600581526020017f61646d696e000000000000000000000000000000000000000000000000000000815250610637565b6000600460006101000a81548160ff021916908315150217905550565b600260009054906101000a900473ffffffffffffffffffffffffffffffffffffffff1681565b60035481565b600061081b336040805190810160405280600581526020017f61646d696e000000000000000000000000000000000000000000000000000000815250610637565b600073ffffffffffffffffffffffffffffffffffffffff168473ffffffffffffffffffffffffffffffffffffffff161415151561085757600080fd5b600082101580156108705750670de0b6b3a76400008211155b151561087b57600080fd5b600160008573ffffffffffffffffffffffffffffffffffffffff1673ffffffffffffffffffffffffffffffffffffffff1681526020019081526020016000209050828160020160006101000a81548173ffffffffffffffffffffffffffffffffffffffff021916908373ffffffffffffffffffffffffffffffffffffffff16021790555081816003018190555050505050565b60008090505b8282905081101561095f57610952838383818110151561093057fe5b9050602002013573ffffffffffffffffffffffffffffffffffffffff166109ec565b8080600101915050610914565b505050565b6109a3336040805190810160405280600581526020017f61646d696e000000000000000000000000000000000000000000000000000000815250610637565b62c18a8c81101580156109bc5750650127520914188111155b15156109c757600080fd5b600460009054906101000a900460ff1615156109e257600080fd5b8060038190555050565b600080600080600073ffffffffffffffffffffffffffffffffffffffff168573ffffffffffffffffffffffffffffffffffffffff1614151515610a2e57600080fd5b600160008673ffffffffffffffffffffffffffffffffffffffff1673ffffffffffffffffffffffffffffffffffffffff16815260200190815260200160002093508360000160009054906101000a900460ff161515610a8c57600080fd5b428460010154101515610a9e57600080fd5b610ab584600101544261116590919063ffffffff16565b9250610acc6003548461117e90919063ffffffff16565b915060009050600073ffffffffffffffffffffffffffffffffffffffff168460020160009054906101000a900473ffffffffffffffffffffffffffffffffffffffff1673ffffffffffffffffffffffffffffffffffffffff1614158015610b37575060008460030154115b15610b8557610b6d670de0b6b3a7640000610b5f86600301548561117e90919063ffffffff16565b6111b990919063ffffffff16565b9050610b82818361116590919063ffffffff16565b91505b6000821115610c7f57600260009054906101000a900473ffffffffffffffffffffffffffffffffffffffff1673ffffffffffffffffffffffffffffffffffffffff166340c10f1986846000604051602001526040518363ffffffff167c0100000000000000000000000000000000000000000000000000000000028152600401808373ffffffffffffffffffffffffffffffffffffffff1673ffffffffffffffffffffffffffffffffffffffff16815260200182815260200192505050602060405180830381600087803b1515610c5b57600080fd5b6102c65a03f11515610c6c57600080fd5b505050604051805190501515610c7e57fe5b5b6000811115610d9d57600260009054906101000a900473ffffffffffffffffffffffffffffffffffffffff1673ffffffffffffffffffffffffffffffffffffffff166340c10f198560020160009054906101000a900473ffffffffffffffffffffffffffffffffffffffff16836000604051602001526040518363ffffffff167c0100000000000000000000000000000000000000000000000000000000028152600401808373ffffffffffffffffffffffffffffffffffffffff1673ffffffffffffffffffffffffffffffffffffffff16815260200182815260200192505050602060405180830381600087803b1515610d7957600080fd5b6102c65a03f11515610d8a57600080fd5b505050604051805190501515610d9c57fe5b5b4284600101819055505050505050565b610db6336109ec565b565b610df7336040805190810160405280600581526020017f61646d696e000000000000000000000000000000000000000000000000000000815250610637565b610e0182826111d4565b5050565b6000610e46336040805190810160405280600581526020017f61646d696e000000000000000000000000000000000000000000000000000000815250610637565b600073ffffffffffffffffffffffffffffffffffffffff168473ffffffffffffffffffffffffffffffffffffffff1614151515610e8257600080fd5b600160008573ffffffffffffffffffffffffffffffffffffffff1673ffffffffffffffffffffffffffffffffffffffff16815260200190815260200160002090508060000160009054906101000a900460ff16151515610ee157600080fd5b60018160000160006101000a81548160ff021916908315150217905550428160010181905550610f128484846107da565b50505050565b6000610f59336040805190810160405280600581526020017f61646d696e000000000000000000000000000000000000000000000000000000815250610637565b600073ffffffffffffffffffffffffffffffffffffffff168273ffffffffffffffffffffffffffffffffffffffff1614151515610f9557600080fd5b600160008373ffffffffffffffffffffffffffffffffffffffff1673ffffffffffffffffffffffffffffffffffffffff16815260200190815260200160002090508060000160009054906101000a900460ff161515610ff357600080fd5b60008160000160006101000a81548160ff0219169083151502179055505050565b611053336040805190810160405280600581526020017f61646d696e000000000000000000000000000000000000000000000000000000815250610637565b61105d8282611325565b5050565b6000600160008373ffffffffffffffffffffffffffffffffffffffff1673ffffffffffffffffffffffffffffffffffffffff16815260200190815260200160002060000160009054906101000a900460ff169050919050565b6040805190810160405280600581526020017f61646d696e00000000000000000000000000000000000000000000000000000081525081565b6110fd828261110c565b151561110857600080fd5b5050565b60008260000160008373ffffffffffffffffffffffffffffffffffffffff1673ffffffffffffffffffffffffffffffffffffffff16815260200190815260200160002060009054906101000a900460ff16905092915050565b600082821115151561117357fe5b818303905092915050565b600080600084141561119357600091506111b2565b82840290508284828115156111a457fe5b041415156111ae57fe5b8091505b5092915050565b60008082848115156111c757fe5b0490508091505092915050565b611251826000836040518082805190602001908083835b60208310151561121057805182526020820191506020810190506020830392506111eb565b6001836020036101000a038019825116818451168082178552505050505050905001915050908152602001604051809103902061147690919063ffffffff16565b7fd211483f91fc6eff862467f8de606587a30c8fc9981056f051b897a418df803a8282604051808373ffffffffffffffffffffffffffffffffffffffff1673ffffffffffffffffffffffffffffffffffffffff16815260200180602001828103825283818151815260200191508051906020019080838360005b838110156112e65780820151818401526020810190506112cb565b50505050905090810190601f1680156113135780820380516001836020036101000a031916815260200191505b50935050505060405180910390a15050565b6113a2826000836040518082805190602001908083835b602083101515611361578051825260208201915060208101905060208303925061133c565b6001836020036101000a03801982511681845116808217855250505050505090500191505090815260200160405180910390206114d490919063ffffffff16565b7fbfec83d64eaa953f2708271a023ab9ee82057f8f3578d548c1a4ba0b5b7004898282604051808373ffffffffffffffffffffffffffffffffffffffff1673ffffffffffffffffffffffffffffffffffffffff16815260200180602001828103825283818151815260200191508051906020019080838360005b8381101561143757808201518184015260208101905061141c565b50505050905090810190601f1680156114645780820380516001836020036101000a031916815260200191505b50935050505060405180910390a15050565b60008260000160008373ffffffffffffffffffffffffffffffffffffffff1673ffffffffffffffffffffffffffffffffffffffff16815260200190815260200160002060006101000a81548160ff0219169083151502179055505050565b60018260000160008373ffffffffffffffffffffffffffffffffffffffff1673ffffffffffffffffffffffffffffffffffffffff16815260200190815260200160002060006101000a81548160ff02191690831515021790555050505600a165627a7a72305820aa63618ddc000f5275f0d0c250d161aac60cc05b264194aacbdda13b852447020029",
  "source": "pragma solidity 0.4.18;\n\nimport \"zeppelin-solidity/contracts/math/SafeMath.sol\";\nimport \"zeppelin-solidity/contracts/ownership/rbac/RBAC.sol\";\nimport \"./Ubi.sol\";\n\ncontract Gatherer is RBAC {\n  using SafeMath for uint256;\n\n  struct Item {\n    bool allowed;\n    uint256 lastGather;\n    address taxReceiver;\n    uint256 taxPerwei;\n  }\n  mapping(address => Item) private items;\n\n  Ubi public ubi;\n  uint256 public rate;\n  bool public canChangeRate = true;\n\n  function Gatherer(address _ubi, uint256 _rate) {\n    require(_ubi != address(0));\n\n    ubi = Ubi(_ubi);\n    changeRate(_rate);\n  }\n\n  // this makes it impossible to change the rate\n  function disableCanChangeRate() external onlyAdmin {\n    canChangeRate = false;\n  }\n  \n  function changeRate(uint256 _rate) public onlyAdmin {\n    require(_rate >= 12683916 && _rate <= 1268391679000);\n    require(canChangeRate);\n\n    rate = _rate;\n  }\n\n  function changeTax(address _user, address _taxReceiver, uint256 _taxPerwei) public onlyAdmin {\n    require(_user != address(0));\n    require(_taxPerwei >= 0 && _taxPerwei <= 1e18);\n\n    Item item = items[_user];\n\n    item.taxReceiver = _taxReceiver;\n    item.taxPerwei = _taxPerwei;\n  }\n\n  // allow user to gather ubi\n  function allow(address _user, address _taxReceiver, uint256 _taxPerwei) external onlyAdmin {\n    require(_user != address(0));\n\n    Item item = items[_user];\n    require(!item.allowed);\n\n    item.allowed = true;\n    item.lastGather = now;\n    changeTax(_user, _taxReceiver, _taxPerwei);\n  }\n\n  // disallow user from gathering ubi\n  function disallow(address _user) external onlyAdmin {\n    require(_user != address(0));\n\n    Item item = items[_user];\n    require(item.allowed);\n\n    item.allowed = false;\n  }\n\n  function isAllowed(address _user) constant public returns (bool) {\n    return items[_user].allowed;\n  }\n\n  function gatherFor(address _user) public {\n    require(_user != address(0));\n\n    Item item = items[_user];\n    require(item.allowed);\n    require(item.lastGather < now);\n\n    // get seconds difference from lastGather\n    uint256 secsDiff = now.sub(item.lastGather);\n    // get amount of UBI for user\n    uint256 userAmount = secsDiff.mul(rate);\n    uint256 taxAmount = 0;\n\n    // calculate tax amount and update amounts\n    if (item.taxReceiver != address(0) && item.taxPerwei > 0) {\n      taxAmount = userAmount.mul(item.taxPerwei).div(1e18);\n      userAmount = userAmount.sub(taxAmount);\n    }\n\n    if (userAmount > 0) {\n      assert(ubi.mint(_user, userAmount));\n    }\n    \n    if (taxAmount > 0) {\n      assert(ubi.mint(item.taxReceiver, taxAmount));  \n    }\n\n    // update state\n    item.lastGather = now;\n  }\n\n  function gather() external {\n    gatherFor(msg.sender);\n  }\n\n  function gatherForMutli(address[] _users) external {\n    uint256 i = 0;\n    while (i < _users.length) {\n      gatherFor(_users[i]);\n      i++;\n    }\n  }\n}",
  "sourcePath": "/mnt/d/work/thesingularitygroup/projects/purpose/contracts/contracts/Gatherer.sol",
  "compiler": {
    "name": "solc",
    "version": "0.4.18+commit.9cf6e910.Emscripten.clang"
  },
  "schemaVersion": "1.0.1",
  "updatedAt": "2017-12-23T23:50:38.956Z"
}