{
  "contractName": "Gatherer",
  "abi": [
    {
      "constant": true,
      "inputs": [
        {
          "name": "addr",
          "type": "address"
        },
        {
          "name": "roleName",
          "type": "string"
        }
      ],
      "name": "checkRole",
      "outputs": [],
      "payable": false,
      "stateMutability": "view",
      "type": "function"
    },
    {
      "constant": true,
      "inputs": [],
      "name": "canChangeRate",
      "outputs": [
        {
          "name": "",
          "type": "bool"
        }
      ],
      "payable": false,
      "stateMutability": "view",
      "type": "function"
    },
    {
      "constant": true,
      "inputs": [
        {
          "name": "addr",
          "type": "address"
        },
        {
          "name": "roleName",
          "type": "string"
        }
      ],
      "name": "hasRole",
      "outputs": [
        {
          "name": "",
          "type": "bool"
        }
      ],
      "payable": false,
      "stateMutability": "view",
      "type": "function"
    },
    {
      "constant": false,
      "inputs": [],
      "name": "disableCanChangeRate",
      "outputs": [],
      "payable": false,
      "stateMutability": "nonpayable",
      "type": "function"
    },
    {
      "constant": true,
      "inputs": [],
      "name": "ubi",
      "outputs": [
        {
          "name": "",
          "type": "address"
        }
      ],
      "payable": false,
      "stateMutability": "view",
      "type": "function"
    },
    {
      "constant": true,
      "inputs": [],
      "name": "rate",
      "outputs": [
        {
          "name": "",
          "type": "uint256"
        }
      ],
      "payable": false,
      "stateMutability": "view",
      "type": "function"
    },
    {
      "constant": false,
      "inputs": [
        {
          "name": "_user",
          "type": "address"
        },
        {
          "name": "_taxReceiver",
          "type": "address"
        },
        {
          "name": "_taxPerwei",
          "type": "uint256"
        }
      ],
      "name": "changeTax",
      "outputs": [],
      "payable": false,
      "stateMutability": "nonpayable",
      "type": "function"
    },
    {
      "constant": false,
      "inputs": [
        {
          "name": "_users",
          "type": "address[]"
        }
      ],
      "name": "gatherForMutli",
      "outputs": [],
      "payable": false,
      "stateMutability": "nonpayable",
      "type": "function"
    },
    {
      "constant": false,
      "inputs": [
        {
          "name": "_rate",
          "type": "uint256"
        }
      ],
      "name": "changeRate",
      "outputs": [],
      "payable": false,
      "stateMutability": "nonpayable",
      "type": "function"
    },
    {
      "constant": false,
      "inputs": [
        {
          "name": "_user",
          "type": "address"
        }
      ],
      "name": "gatherFor",
      "outputs": [],
      "payable": false,
      "stateMutability": "nonpayable",
      "type": "function"
    },
    {
      "constant": false,
      "inputs": [],
      "name": "gather",
      "outputs": [],
      "payable": false,
      "stateMutability": "nonpayable",
      "type": "function"
    },
    {
      "constant": false,
      "inputs": [
        {
          "name": "addr",
          "type": "address"
        },
        {
          "name": "roleName",
          "type": "string"
        }
      ],
      "name": "adminRemoveRole",
      "outputs": [],
      "payable": false,
      "stateMutability": "nonpayable",
      "type": "function"
    },
    {
      "constant": false,
      "inputs": [
        {
          "name": "_user",
          "type": "address"
        },
        {
          "name": "_taxReceiver",
          "type": "address"
        },
        {
          "name": "_taxPerwei",
          "type": "uint256"
        }
      ],
      "name": "allow",
      "outputs": [],
      "payable": false,
      "stateMutability": "nonpayable",
      "type": "function"
    },
    {
      "constant": false,
      "inputs": [
        {
          "name": "_user",
          "type": "address"
        }
      ],
      "name": "disallow",
      "outputs": [],
      "payable": false,
      "stateMutability": "nonpayable",
      "type": "function"
    },
    {
      "constant": false,
      "inputs": [
        {
          "name": "addr",
          "type": "address"
        },
        {
          "name": "roleName",
          "type": "string"
        }
      ],
      "name": "adminAddRole",
      "outputs": [],
      "payable": false,
      "stateMutability": "nonpayable",
      "type": "function"
    },
    {
      "constant": true,
      "inputs": [
        {
          "name": "_user",
          "type": "address"
        }
      ],
      "name": "isAllowed",
      "outputs": [
        {
          "name": "",
          "type": "bool"
        }
      ],
      "payable": false,
      "stateMutability": "view",
      "type": "function"
    },
    {
      "constant": true,
      "inputs": [],
      "name": "ROLE_ADMIN",
      "outputs": [
        {
          "name": "",
          "type": "string"
        }
      ],
      "payable": false,
      "stateMutability": "view",
      "type": "function"
    },
    {
      "constant": true,
      "inputs": [],
      "name": "MAXPERWEI",
      "outputs": [
        {
          "name": "",
          "type": "uint256"
        }
      ],
      "payable": false,
      "stateMutability": "view",
      "type": "function"
    },
    {
      "inputs": [
        {
          "name": "_ubi",
          "type": "address"
        },
        {
          "name": "_rate",
          "type": "uint256"
        }
      ],
      "payable": false,
      "stateMutability": "nonpayable",
      "type": "constructor"
    },
    {
      "anonymous": false,
      "inputs": [
        {
          "indexed": false,
          "name": "addr",
          "type": "address"
        },
        {
          "indexed": false,
          "name": "roleName",
          "type": "string"
        }
      ],
      "name": "RoleAdded",
      "type": "event"
    },
    {
      "anonymous": false,
      "inputs": [
        {
          "indexed": false,
          "name": "addr",
          "type": "address"
        },
        {
          "indexed": false,
          "name": "roleName",
          "type": "string"
        }
      ],
      "name": "RoleRemoved",
      "type": "event"
    }
  ],
  "bytecode": "0x60606040526001600460006101000a81548160ff02191690831515021790555034156200002b57600080fd5b60405160408062001a7883398101604052808051906020019091908051906020019091905050620000a6336040805190810160405280600581526020017f61646d696e0000000000000000000000000000000000000000000000000000008152506200014b6401000000000262001364176401000000009004565b600073ffffffffffffffffffffffffffffffffffffffff168273ffffffffffffffffffffffffffffffffffffffff1614151515620000e357600080fd5b81600260006101000a81548173ffffffffffffffffffffffffffffffffffffffff021916908373ffffffffffffffffffffffffffffffffffffffff1602179055506200014381620002b16401000000000262000998176401000000009004565b5050620004cb565b620001da826000836040518082805190602001908083835b6020831015156200018a578051825260208201915060208101905060208303925062000163565b6001836020036101000a0380198251168184511680821785525050505050509050019150509081526020016040518091039020620003516401000000000262001513179091906401000000009004565b7fbfec83d64eaa953f2708271a023ab9ee82057f8f3578d548c1a4ba0b5b7004898282604051808373ffffffffffffffffffffffffffffffffffffffff1673ffffffffffffffffffffffffffffffffffffffff16815260200180602001828103825283818151815260200191508051906020019080838360005b838110156200027157808201518184015260208101905062000254565b50505050905090810190601f1680156200029f5780820380516001836020036101000a031916815260200191505b50935050505060405180910390a15050565b62000306336040805190810160405280600581526020017f61646d696e000000000000000000000000000000000000000000000000000000815250620003af640100000000026200066b176401000000009004565b62c18a8c81101580156200031f5750641d88341b9c8111155b15156200032b57600080fd5b600460009054906101000a900460ff1615156200034757600080fd5b8060038190555050565b60018260000160008373ffffffffffffffffffffffffffffffffffffffff1673ffffffffffffffffffffffffffffffffffffffff16815260200190815260200160002060006101000a81548160ff0219169083151502179055505050565b6200043e826000836040518082805190602001908083835b602083101515620003ee5780518252602082019150602081019050602083039250620003c7565b6001836020036101000a0380198251168184511680821785525050505050509050019150509081526020016040518091039020620004426401000000000262001132179091906401000000009004565b5050565b62000462828262000472640100000000026200114b176401000000009004565b15156200046e57600080fd5b5050565b60008260000160008373ffffffffffffffffffffffffffffffffffffffff1673ffffffffffffffffffffffffffffffffffffffff16815260200190815260200160002060009054906101000a900460ff16905092915050565b61159d80620004db6000396000f3006060604052600436106100fc576000357c0100000000000000000000000000000000000000000000000000000000900463ffffffff1680630988ca8c1461010157806315b9d7f61461017d578063217fe6c6146101aa5780632c1a1d1e1461023e5780632c3a03a7146102535780632c4e722e146102a857806352930fdf146102d15780636599fc3f1461033257806374e7493b1461036057806376f35f28146103835780637cb834e3146103bc57806388cee87e146103d1578063a79fafa41461044d578063a9ed9cb8146104ae578063b25fa92c146104e7578063babcc53914610563578063d391014b146105b4578063f2cf687a14610642575b600080fd5b341561010c57600080fd5b61017b600480803573ffffffffffffffffffffffffffffffffffffffff1690602001909190803590602001908201803590602001908080601f0160208091040260200160405190810160405280939291908181526020018383808284378201915050505050509190505061066b565b005b341561018857600080fd5b6101906106ec565b604051808215151515815260200191505060405180910390f35b34156101b557600080fd5b610224600480803573ffffffffffffffffffffffffffffffffffffffff1690602001909190803590602001908201803590602001908080601f016020809104026020016040519081016040528093929190818152602001838380828437820191505050505050919050506106ff565b604051808215151515815260200191505060405180910390f35b341561024957600080fd5b610251610786565b005b341561025e57600080fd5b6102666107e2565b604051808273ffffffffffffffffffffffffffffffffffffffff1673ffffffffffffffffffffffffffffffffffffffff16815260200191505060405180910390f35b34156102b357600080fd5b6102bb610808565b6040518082815260200191505060405180910390f35b34156102dc57600080fd5b610330600480803573ffffffffffffffffffffffffffffffffffffffff1690602001909190803573ffffffffffffffffffffffffffffffffffffffff1690602001909190803590602001909190505061080e565b005b341561033d57600080fd5b61035e60048080359060200190820180359060200191909192905050610942565b005b341561036b57600080fd5b6103816004808035906020019091905050610998565b005b341561038e57600080fd5b6103ba600480803573ffffffffffffffffffffffffffffffffffffffff16906020019091905050610a1f565b005b34156103c757600080fd5b6103cf610de0565b005b34156103dc57600080fd5b61044b600480803573ffffffffffffffffffffffffffffffffffffffff1690602001909190803590602001908201803590602001908080601f01602080910402602001604051908101604052809392919081815260200183838082843782019150505050505091905050610deb565b005b341561045857600080fd5b6104ac600480803573ffffffffffffffffffffffffffffffffffffffff1690602001909190803573ffffffffffffffffffffffffffffffffffffffff16906020019091908035906020019091905050610e38565b005b34156104b957600080fd5b6104e5600480803573ffffffffffffffffffffffffffffffffffffffff16906020019091905050610f4b565b005b34156104f257600080fd5b610561600480803573ffffffffffffffffffffffffffffffffffffffff1690602001909190803590602001908201803590602001908080601f01602080910402602001604051908101604052809392919081815260200183838082843782019150505050505091905050611047565b005b341561056e57600080fd5b61059a600480803573ffffffffffffffffffffffffffffffffffffffff16906020019091905050611094565b604051808215151515815260200191505060405180910390f35b34156105bf57600080fd5b6105c76110ed565b6040518080602001828103825283818151815260200191508051906020019080838360005b838110156106075780820151818401526020810190506105ec565b50505050905090810190601f1680156106345780820380516001836020036101000a031916815260200191505b509250505060405180910390f35b341561064d57600080fd5b610655611126565b6040518082815260200191505060405180910390f35b6106e8826000836040518082805190602001908083835b6020831015156106a75780518252602082019150602081019050602083039250610682565b6001836020036101000a038019825116818451168082178552505050505050905001915050908152602001604051809103902061113290919063ffffffff16565b5050565b600460009054906101000a900460ff1681565b600061077e836000846040518082805190602001908083835b60208310151561073d5780518252602082019150602081019050602083039250610718565b6001836020036101000a038019825116818451168082178552505050505050905001915050908152602001604051809103902061114b90919063ffffffff16565b905092915050565b6107c5336040805190810160405280600581526020017f61646d696e00000000000000000000000000000000000000000000000000000081525061066b565b6000600460006101000a81548160ff021916908315150217905550565b600260009054906101000a900473ffffffffffffffffffffffffffffffffffffffff1681565b60035481565b600061084f336040805190810160405280600581526020017f61646d696e00000000000000000000000000000000000000000000000000000081525061066b565b600073ffffffffffffffffffffffffffffffffffffffff168473ffffffffffffffffffffffffffffffffffffffff161415151561088b57600080fd5b600082101580156108a45750670de0b6b3a76400008211155b15156108af57600080fd5b600160008573ffffffffffffffffffffffffffffffffffffffff1673ffffffffffffffffffffffffffffffffffffffff1681526020019081526020016000209050828160020160006101000a81548173ffffffffffffffffffffffffffffffffffffffff021916908373ffffffffffffffffffffffffffffffffffffffff16021790555081816003018190555050505050565b60008090505b8282905081101561099357610986838383818110151561096457fe5b9050602002013573ffffffffffffffffffffffffffffffffffffffff16610a1f565b8080600101915050610948565b505050565b6109d7336040805190810160405280600581526020017f61646d696e00000000000000000000000000000000000000000000000000000081525061066b565b62c18a8c81101580156109ef5750641d88341b9c8111155b15156109fa57600080fd5b600460009054906101000a900460ff161515610a1557600080fd5b8060038190555050565b600080600080600073ffffffffffffffffffffffffffffffffffffffff168573ffffffffffffffffffffffffffffffffffffffff1614151515610a6157600080fd5b600160008673ffffffffffffffffffffffffffffffffffffffff1673ffffffffffffffffffffffffffffffffffffffff16815260200190815260200160002093508360000160009054906101000a900460ff161515610abf57600080fd5b428460010154101515610ad157600080fd5b610ae88460010154426111a490919063ffffffff16565b9250610aff600354846111bd90919063ffffffff16565b915060009050600073ffffffffffffffffffffffffffffffffffffffff168460020160009054906101000a900473ffffffffffffffffffffffffffffffffffffffff1673ffffffffffffffffffffffffffffffffffffffff1614158015610b6a575060008460030154115b15610bb857610ba0670de0b6b3a7640000610b928660030154856111bd90919063ffffffff16565b6111f890919063ffffffff16565b9050610bb581836111a490919063ffffffff16565b91505b4284600101819055506000821115610cbb57600260009054906101000a900473ffffffffffffffffffffffffffffffffffffffff1673ffffffffffffffffffffffffffffffffffffffff1663c784dd2c86846000604051602001526040518363ffffffff167c0100000000000000000000000000000000000000000000000000000000028152600401808373ffffffffffffffffffffffffffffffffffffffff1673ffffffffffffffffffffffffffffffffffffffff16815260200182815260200192505050602060405180830381600087803b1515610c9757600080fd5b6102c65a03f11515610ca857600080fd5b505050604051805190501515610cba57fe5b5b6000811115610dd957600260009054906101000a900473ffffffffffffffffffffffffffffffffffffffff1673ffffffffffffffffffffffffffffffffffffffff1663c784dd2c8560020160009054906101000a900473ffffffffffffffffffffffffffffffffffffffff16836000604051602001526040518363ffffffff167c0100000000000000000000000000000000000000000000000000000000028152600401808373ffffffffffffffffffffffffffffffffffffffff1673ffffffffffffffffffffffffffffffffffffffff16815260200182815260200192505050602060405180830381600087803b1515610db557600080fd5b6102c65a03f11515610dc657600080fd5b505050604051805190501515610dd857fe5b5b5050505050565b610de933610a1f565b565b610e2a336040805190810160405280600581526020017f61646d696e00000000000000000000000000000000000000000000000000000081525061066b565b610e348282611213565b5050565b6000610e79336040805190810160405280600581526020017f61646d696e00000000000000000000000000000000000000000000000000000081525061066b565b600073ffffffffffffffffffffffffffffffffffffffff168473ffffffffffffffffffffffffffffffffffffffff1614151515610eb557600080fd5b600160008573ffffffffffffffffffffffffffffffffffffffff1673ffffffffffffffffffffffffffffffffffffffff16815260200190815260200160002090508060000160009054906101000a900460ff16151515610f1457600080fd5b60018160000160006101000a81548160ff021916908315150217905550428160010181905550610f4584848461080e565b50505050565b6000610f8c336040805190810160405280600581526020017f61646d696e00000000000000000000000000000000000000000000000000000081525061066b565b600073ffffffffffffffffffffffffffffffffffffffff168273ffffffffffffffffffffffffffffffffffffffff1614151515610fc857600080fd5b600160008373ffffffffffffffffffffffffffffffffffffffff1673ffffffffffffffffffffffffffffffffffffffff16815260200190815260200160002090508060000160009054906101000a900460ff16151561102657600080fd5b60008160000160006101000a81548160ff0219169083151502179055505050565b611086336040805190810160405280600581526020017f61646d696e00000000000000000000000000000000000000000000000000000081525061066b565b6110908282611364565b5050565b6000600160008373ffffffffffffffffffffffffffffffffffffffff1673ffffffffffffffffffffffffffffffffffffffff16815260200190815260200160002060000160009054906101000a900460ff169050919050565b6040805190810160405280600581526020017f61646d696e00000000000000000000000000000000000000000000000000000081525081565b670de0b6b3a764000081565b61113c828261114b565b151561114757600080fd5b5050565b60008260000160008373ffffffffffffffffffffffffffffffffffffffff1673ffffffffffffffffffffffffffffffffffffffff16815260200190815260200160002060009054906101000a900460ff16905092915050565b60008282111515156111b257fe5b818303905092915050565b60008060008414156111d257600091506111f1565b82840290508284828115156111e357fe5b041415156111ed57fe5b8091505b5092915050565b600080828481151561120657fe5b0490508091505092915050565b611290826000836040518082805190602001908083835b60208310151561124f578051825260208201915060208101905060208303925061122a565b6001836020036101000a03801982511681845116808217855250505050505090500191505090815260200160405180910390206114b590919063ffffffff16565b7fd211483f91fc6eff862467f8de606587a30c8fc9981056f051b897a418df803a8282604051808373ffffffffffffffffffffffffffffffffffffffff1673ffffffffffffffffffffffffffffffffffffffff16815260200180602001828103825283818151815260200191508051906020019080838360005b8381101561132557808201518184015260208101905061130a565b50505050905090810190601f1680156113525780820380516001836020036101000a031916815260200191505b50935050505060405180910390a15050565b6113e1826000836040518082805190602001908083835b6020831015156113a0578051825260208201915060208101905060208303925061137b565b6001836020036101000a038019825116818451168082178552505050505050905001915050908152602001604051809103902061151390919063ffffffff16565b7fbfec83d64eaa953f2708271a023ab9ee82057f8f3578d548c1a4ba0b5b7004898282604051808373ffffffffffffffffffffffffffffffffffffffff1673ffffffffffffffffffffffffffffffffffffffff16815260200180602001828103825283818151815260200191508051906020019080838360005b8381101561147657808201518184015260208101905061145b565b50505050905090810190601f1680156114a35780820380516001836020036101000a031916815260200191505b50935050505060405180910390a15050565b60008260000160008373ffffffffffffffffffffffffffffffffffffffff1673ffffffffffffffffffffffffffffffffffffffff16815260200190815260200160002060006101000a81548160ff0219169083151502179055505050565b60018260000160008373ffffffffffffffffffffffffffffffffffffffff1673ffffffffffffffffffffffffffffffffffffffff16815260200190815260200160002060006101000a81548160ff02191690831515021790555050505600a165627a7a723058201027801e0a4c5f6cc921bc9933285ae1b1a8d0648ceaf5acb7bb8c3bfe5298450029",
  "source": "pragma solidity 0.4.18;\n\nimport \"zeppelin-solidity/contracts/math/SafeMath.sol\";\nimport \"zeppelin-solidity/contracts/ownership/rbac/RBAC.sol\";\nimport \"./Ubi.sol\";\n\n\ncontract Gatherer is RBAC {\n  using SafeMath for uint256;\n\n  struct Item {\n    bool allowed;\n    uint256 lastGather;\n    address taxReceiver;\n    uint256 taxPerwei;\n  }\n\n  mapping(address => Item) private items;\n\n  Ubi public ubi;\n  uint256 public rate;\n  bool public canChangeRate = true;\n  uint256 constant public MAXPERWEI = 1 ether;\n\n  function Gatherer(address _ubi, uint256 _rate) {\n    require(_ubi != address(0));\n\n    ubi = Ubi(_ubi);\n    changeRate(_rate);\n  }\n\n  // this makes it impossible to change the rate\n  function disableCanChangeRate() external onlyAdmin {\n    canChangeRate = false;\n  }\n  \n  // allow user to gather ubi\n  function allow(address _user, address _taxReceiver, uint256 _taxPerwei) external onlyAdmin {\n    require(_user != address(0));\n\n    Item item = items[_user];\n    require(!item.allowed);\n\n    item.allowed = true;\n    item.lastGather = now;\n    changeTax(_user, _taxReceiver, _taxPerwei);\n  }\n\n  // disallow user from gathering ubi\n  function disallow(address _user) external onlyAdmin {\n    require(_user != address(0));\n\n    Item item = items[_user];\n    require(item.allowed);\n\n    item.allowed = false;\n  }\n\n  function gather() external {\n    gatherFor(msg.sender);\n  }\n\n  function gatherForMutli(address[] _users) external {\n    uint256 i = 0;\n    while (i < _users.length) {\n      gatherFor(_users[i]);\n      i++;\n    }\n  }\n\n  function changeRate(uint256 _rate) public onlyAdmin {\n    require(_rate >= 12683916 && _rate <= 126839167900);\n    require(canChangeRate);\n\n    rate = _rate;\n  }\n\n  function changeTax(address _user, address _taxReceiver, uint256 _taxPerwei) public onlyAdmin {\n    require(_user != address(0));\n    require(_taxPerwei >= 0 && _taxPerwei <= MAXPERWEI);\n\n    Item item = items[_user];\n\n    item.taxReceiver = _taxReceiver;\n    item.taxPerwei = _taxPerwei;\n  }\n\n  function isAllowed(address _user) public view returns (bool) {\n    return items[_user].allowed;\n  }\n\n  function gatherFor(address _user) public {\n    require(_user != address(0));\n\n    Item item = items[_user];\n    require(item.allowed);\n    require(item.lastGather < now);\n\n    // get seconds difference from lastGather\n    uint256 secsDiff = now.sub(item.lastGather);\n    // get amount of UBI for user\n    uint256 userAmount = secsDiff.mul(rate);\n    uint256 taxAmount = 0;\n\n    // calculate tax amount and update amounts\n    if (item.taxReceiver != address(0) && item.taxPerwei > 0) {\n      taxAmount = userAmount.mul(item.taxPerwei).div(MAXPERWEI);\n      userAmount = userAmount.sub(taxAmount);\n    }\n\n    // update state\n    item.lastGather = now;\n\n    if (userAmount > 0) {\n      assert(ubi.mintUbi(_user, userAmount));\n    }\n    \n    if (taxAmount > 0) {\n      assert(ubi.mintUbi(item.taxReceiver, taxAmount));  \n    }\n  }\n}",
  "sourcePath": "/mnt/d/work/thesingularitygroup/projects/purpose/contracts/contracts/Gatherer.sol",
  "compiler": {
    "name": "solc",
    "version": "0.4.18+commit.9cf6e910.Emscripten.clang"
  },
  "schemaVersion": "1.0.1",
  "updatedAt": "2017-12-25T01:02:32.631Z"
}