{
  "contractName": "Hodler",
  "abi": [
    {
      "constant": false,
      "inputs": [
        {
          "name": "_id",
          "type": "uint256"
        }
      ],
      "name": "release",
      "outputs": [],
      "payable": false,
      "stateMutability": "nonpayable",
      "type": "function"
    },
    {
      "constant": false,
      "inputs": [
        {
          "name": "_dubi",
          "type": "address"
        }
      ],
      "name": "changeDubiAddress",
      "outputs": [],
      "payable": false,
      "stateMutability": "nonpayable",
      "type": "function"
    },
    {
      "constant": true,
      "inputs": [],
      "name": "dubi",
      "outputs": [
        {
          "name": "",
          "type": "address"
        }
      ],
      "payable": false,
      "stateMutability": "view",
      "type": "function"
    },
    {
      "constant": false,
      "inputs": [
        {
          "name": "_id",
          "type": "uint256"
        },
        {
          "name": "_value",
          "type": "uint256"
        },
        {
          "name": "_months",
          "type": "uint256"
        }
      ],
      "name": "hodl",
      "outputs": [],
      "payable": false,
      "stateMutability": "nonpayable",
      "type": "function"
    },
    {
      "constant": true,
      "inputs": [],
      "name": "purpose",
      "outputs": [
        {
          "name": "",
          "type": "address"
        }
      ],
      "payable": false,
      "stateMutability": "view",
      "type": "function"
    },
    {
      "constant": true,
      "inputs": [],
      "name": "owner",
      "outputs": [
        {
          "name": "",
          "type": "address"
        }
      ],
      "payable": false,
      "stateMutability": "view",
      "type": "function"
    },
    {
      "constant": true,
      "inputs": [
        {
          "name": "_user",
          "type": "address"
        },
        {
          "name": "_id",
          "type": "uint256"
        }
      ],
      "name": "getItem",
      "outputs": [
        {
          "name": "",
          "type": "uint256"
        },
        {
          "name": "",
          "type": "address"
        },
        {
          "name": "",
          "type": "uint256"
        },
        {
          "name": "",
          "type": "uint256"
        },
        {
          "name": "",
          "type": "bool"
        }
      ],
      "payable": false,
      "stateMutability": "view",
      "type": "function"
    },
    {
      "constant": false,
      "inputs": [
        {
          "name": "newOwner",
          "type": "address"
        }
      ],
      "name": "transferOwnership",
      "outputs": [],
      "payable": false,
      "stateMutability": "nonpayable",
      "type": "function"
    },
    {
      "inputs": [
        {
          "name": "_purpose",
          "type": "address"
        },
        {
          "name": "_dubi",
          "type": "address"
        }
      ],
      "payable": false,
      "stateMutability": "nonpayable",
      "type": "constructor"
    },
    {
      "anonymous": false,
      "inputs": [
        {
          "indexed": true,
          "name": "previousOwner",
          "type": "address"
        },
        {
          "indexed": true,
          "name": "newOwner",
          "type": "address"
        }
      ],
      "name": "OwnershipTransferred",
      "type": "event"
    }
  ],
  "bytecode": "0x6060604052341561000f57600080fd5b60405160408061128a83398101604052808051906020019091908051906020019091905050336000806101000a81548173ffffffffffffffffffffffffffffffffffffffff021916908373ffffffffffffffffffffffffffffffffffffffff160217905550600073ffffffffffffffffffffffffffffffffffffffff168273ffffffffffffffffffffffffffffffffffffffff16141515156100b057600080fd5b81600160006101000a81548173ffffffffffffffffffffffffffffffffffffffff021916908373ffffffffffffffffffffffffffffffffffffffff16021790555061010d8161011464010000000002610536176401000000009004565b50506101ef565b6000809054906101000a900473ffffffffffffffffffffffffffffffffffffffff1673ffffffffffffffffffffffffffffffffffffffff163373ffffffffffffffffffffffffffffffffffffffff1614151561016f57600080fd5b600073ffffffffffffffffffffffffffffffffffffffff168173ffffffffffffffffffffffffffffffffffffffff16141515156101ab57600080fd5b80600260006101000a81548173ffffffffffffffffffffffffffffffffffffffff021916908373ffffffffffffffffffffffffffffffffffffffff16021790555050565b61108c806101fe6000396000f30060606040526004361061008e576000357c0100000000000000000000000000000000000000000000000000000000900463ffffffff16806337bdc99b146100935780633d595134146100b657806354829cad146100ef57806364c343641461014457806370740aab146101795780638da5cb5b146101ce578063b8a80aac14610223578063f2fde38b146102c5575b600080fd5b341561009e57600080fd5b6100b460048080359060200190919050506102fe565b005b34156100c157600080fd5b6100ed600480803573ffffffffffffffffffffffffffffffffffffffff16906020019091905050610536565b005b34156100fa57600080fd5b610102610611565b604051808273ffffffffffffffffffffffffffffffffffffffff1673ffffffffffffffffffffffffffffffffffffffff16815260200191505060405180910390f35b341561014f57600080fd5b6101776004808035906020019091908035906020019091908035906020019091905050610637565b005b341561018457600080fd5b61018c610cc3565b604051808273ffffffffffffffffffffffffffffffffffffffff1673ffffffffffffffffffffffffffffffffffffffff16815260200191505060405180910390f35b34156101d957600080fd5b6101e1610ce9565b604051808273ffffffffffffffffffffffffffffffffffffffff1673ffffffffffffffffffffffffffffffffffffffff16815260200191505060405180910390f35b341561022e57600080fd5b610263600480803573ffffffffffffffffffffffffffffffffffffffff16906020019091908035906020019091905050610d0e565b604051808681526020018573ffffffffffffffffffffffffffffffffffffffff1673ffffffffffffffffffffffffffffffffffffffff168152602001848152602001838152602001821515151581526020019550505050505060405180910390f35b34156102d057600080fd5b6102fc600480803573ffffffffffffffffffffffffffffffffffffffff16906020019091905050610dc4565b005b6000806000808411151561031157600080fd5b339250600360008473ffffffffffffffffffffffffffffffffffffffff1673ffffffffffffffffffffffffffffffffffffffff1681526020019081526020016000206000858152602001908152602001600020915083826000015414151561037857600080fd5b8160040160009054906101000a900460ff1615151561039657600080fd5b816003015442101515156103a957600080fd5b600160009054906101000a900473ffffffffffffffffffffffffffffffffffffffff1673ffffffffffffffffffffffffffffffffffffffff166370a08231306000604051602001526040518263ffffffff167c0100000000000000000000000000000000000000000000000000000000028152600401808273ffffffffffffffffffffffffffffffffffffffff1673ffffffffffffffffffffffffffffffffffffffff168152602001915050602060405180830381600087803b151561046e57600080fd5b6102c65a03f1151561047f57600080fd5b5050506040518051905090508160020154811015151561049e57600080fd5b60018260040160006101000a81548160ff0219169083151502179055506105308260010160009054906101000a900473ffffffffffffffffffffffffffffffffffffffff168360020154600160009054906101000a900473ffffffffffffffffffffffffffffffffffffffff1673ffffffffffffffffffffffffffffffffffffffff16610f199092919063ffffffff16565b50505050565b6000809054906101000a900473ffffffffffffffffffffffffffffffffffffffff1673ffffffffffffffffffffffffffffffffffffffff163373ffffffffffffffffffffffffffffffffffffffff1614151561059157600080fd5b600073ffffffffffffffffffffffffffffffffffffffff168173ffffffffffffffffffffffffffffffffffffffff16141515156105cd57600080fd5b80600260006101000a81548173ffffffffffffffffffffffffffffffffffffffff021916908373ffffffffffffffffffffffffffffffffffffffff16021790555050565b600260009054906101000a900473ffffffffffffffffffffffffffffffffffffffff1681565b6000806000806000806000806000808c11151561065357600080fd5b60008b11151561066257600080fd5b60038a1480610671575060068a145b8061067c5750600c8a145b151561068757600080fd5b339850600360008a73ffffffffffffffffffffffffffffffffffffffff1673ffffffffffffffffffffffffffffffffffffffff16815260200190815260200160002060008d815260200190815260200160002097508b8860000154141515156106ef57600080fd5b610705622819a08b610fec90919063ffffffff16565b965061071a874261102790919063ffffffff16565b9550428611151561072a57600080fd5b600160009054906101000a900473ffffffffffffffffffffffffffffffffffffffff1673ffffffffffffffffffffffffffffffffffffffff166370a082318a6000604051602001526040518263ffffffff167c0100000000000000000000000000000000000000000000000000000000028152600401808273ffffffffffffffffffffffffffffffffffffffff1673ffffffffffffffffffffffffffffffffffffffff168152602001915050602060405180830381600087803b15156107ef57600080fd5b6102c65a03f1151561080057600080fd5b5050506040518051905094508a851015151561081b57600080fd5b61082f60038b61104590919063ffffffff16565b93506108576064610849868e610fec90919063ffffffff16565b61104590919063ffffffff16565b9250610880600361087260058d610fec90919063ffffffff16565b61104590919063ffffffff16565b91506108a961271061089b848e610fec90919063ffffffff16565b61104590919063ffffffff16565b905060a0604051908101604052808d81526020018a73ffffffffffffffffffffffffffffffffffffffff1681526020018c815260200187815260200160001515815250600360008b73ffffffffffffffffffffffffffffffffffffffff1673ffffffffffffffffffffffffffffffffffffffff16815260200190815260200160002060008e81526020019081526020016000206000820151816000015560208201518160010160006101000a81548173ffffffffffffffffffffffffffffffffffffffff021916908373ffffffffffffffffffffffffffffffffffffffff160217905550604082015181600201556060820151816003015560808201518160040160006101000a81548160ff021916908315150217905550905050600160009054906101000a900473ffffffffffffffffffffffffffffffffffffffff1673ffffffffffffffffffffffffffffffffffffffff1663a0bd1ec18a8d6000604051602001526040518363ffffffff167c0100000000000000000000000000000000000000000000000000000000028152600401808373ffffffffffffffffffffffffffffffffffffffff1673ffffffffffffffffffffffffffffffffffffffff16815260200182815260200192505050602060405180830381600087803b1515610a9157600080fd5b6102c65a03f11515610aa257600080fd5b505050604051805190501515610ab457fe5b600260009054906101000a900473ffffffffffffffffffffffffffffffffffffffff1673ffffffffffffffffffffffffffffffffffffffff166340c10f198a856000604051602001526040518363ffffffff167c0100000000000000000000000000000000000000000000000000000000028152600401808373ffffffffffffffffffffffffffffffffffffffff1673ffffffffffffffffffffffffffffffffffffffff16815260200182815260200192505050602060405180830381600087803b1515610b8157600080fd5b6102c65a03f11515610b9257600080fd5b505050604051805190501515610ba457fe5b600260009054906101000a900473ffffffffffffffffffffffffffffffffffffffff1673ffffffffffffffffffffffffffffffffffffffff166340c10f196000809054906101000a900473ffffffffffffffffffffffffffffffffffffffff16836000604051602001526040518363ffffffff167c0100000000000000000000000000000000000000000000000000000000028152600401808373ffffffffffffffffffffffffffffffffffffffff1673ffffffffffffffffffffffffffffffffffffffff16815260200182815260200192505050602060405180830381600087803b1515610c9257600080fd5b6102c65a03f11515610ca357600080fd5b505050604051805190501515610cb557fe5b505050505050505050505050565b600160009054906101000a900473ffffffffffffffffffffffffffffffffffffffff1681565b6000809054906101000a900473ffffffffffffffffffffffffffffffffffffffff1681565b600080600080600080600360008973ffffffffffffffffffffffffffffffffffffffff1673ffffffffffffffffffffffffffffffffffffffff1681526020019081526020016000206000888152602001908152602001600020905080600001548160010160009054906101000a900473ffffffffffffffffffffffffffffffffffffffff16826002015483600301548460040160009054906101000a900460ff1695509550955095509550509295509295909350565b6000809054906101000a900473ffffffffffffffffffffffffffffffffffffffff1673ffffffffffffffffffffffffffffffffffffffff163373ffffffffffffffffffffffffffffffffffffffff16141515610e1f57600080fd5b600073ffffffffffffffffffffffffffffffffffffffff168173ffffffffffffffffffffffffffffffffffffffff1614151515610e5b57600080fd5b8073ffffffffffffffffffffffffffffffffffffffff166000809054906101000a900473ffffffffffffffffffffffffffffffffffffffff1673ffffffffffffffffffffffffffffffffffffffff167f8be0079c531659141344cd1fd0a4f28419497f9722a3daafe3b4186f6b6457e060405160405180910390a3806000806101000a81548173ffffffffffffffffffffffffffffffffffffffff021916908373ffffffffffffffffffffffffffffffffffffffff16021790555050565b8273ffffffffffffffffffffffffffffffffffffffff1663a9059cbb83836000604051602001526040518363ffffffff167c0100000000000000000000000000000000000000000000000000000000028152600401808373ffffffffffffffffffffffffffffffffffffffff1673ffffffffffffffffffffffffffffffffffffffff16815260200182815260200192505050602060405180830381600087803b1515610fc457600080fd5b6102c65a03f11515610fd557600080fd5b505050604051805190501515610fe757fe5b505050565b60008060008414156110015760009150611020565b828402905082848281151561101257fe5b0414151561101c57fe5b8091505b5092915050565b600080828401905083811015151561103b57fe5b8091505092915050565b600080828481151561105357fe5b04905080915050929150505600a165627a7a7230582092c829a905195926003d0d73738155fd24d58b0adb9d6e1349373b0a7fd9ae600029",
  "source": "pragma solidity 0.4.18;\n\nimport \"zeppelin-solidity/contracts/token/SafeERC20.sol\";\nimport \"zeppelin-solidity/contracts/math/SafeMath.sol\";\nimport \"zeppelin-solidity/contracts/ownership/Ownable.sol\";\nimport \"./Purpose.sol\";\nimport \"./DUBI.sol\";\n\n\ncontract Hodler is Ownable {\n  using SafeMath for uint256;\n  using SafeERC20 for Purpose;\n  using SafeERC20 for DUBI;\n\n  Purpose public purpose;\n  DUBI public dubi;\n\n  struct Item {\n    uint256 id;\n    address beneficiary;\n    uint256 value;\n    uint256 releaseTime;\n    bool fulfilled;\n  }\n\n  mapping(address => mapping(uint256 => Item)) private items;\n\n  function Hodler(address _purpose, address _dubi) public {\n    require(_purpose != address(0));\n\n    purpose = Purpose(_purpose);\n    changeDubiAddress(_dubi);\n  }\n\n  function changeDubiAddress(address _dubi) public onlyOwner {\n    require(_dubi != address(0));\n\n    dubi = DUBI(_dubi);\n  }\n\n  function hodl(uint256 _id, uint256 _value, uint256 _months) external {\n    require(_id > 0);\n    require(_value > 0);\n    // only 3 types are allowed\n    require(_months == 3 || _months == 6 || _months == 12);\n\n    // user\n    address _user = msg.sender;\n\n    // get dubi item\n    Item storage item = items[_user][_id];\n    // make sure dubi doesnt exist already\n    require(item.id != _id);\n\n    // turn months to seconds\n    uint256 _seconds = _months.mul(2628000);\n    // get release time\n    uint256 _releaseTime = now.add(_seconds);\n    require(_releaseTime > now);\n\n    // check if user has enough balance\n    uint256 balance = purpose.balanceOf(_user);\n    require(balance >= _value);\n\n    // calculate percentage to mint for user: 3 months = 1% => _months / 3 = x\n    uint256 userPercentage = _months.div(3);\n    // get dubi amount: => (_value * userPercentage) / 100\n    uint256 userDubiAmount = _value.mul(userPercentage).div(100);\n\n    // calculate percentage * 100 to mint for owner: 3 months = 0.05% => (_months * (0.05 * 100)) / 3 = x * 100\n    uint256 ownerPercentage100 = _months.mul(5).div(3);\n    // get dubi amount: => (_value * ownerPercentage100) / 100 * 100\n    uint256 ownerDubiAmount = _value.mul(ownerPercentage100).div(10000);\n\n    // update state\n    items[_user][_id] = Item(_id, _user, _value, _releaseTime, false);\n\n    // transfer tokens to hodler\n    assert(purpose.hodlerTransfer(_user, _value));\n\n    // mint tokens for user and owner\n    assert(dubi.mint(_user, userDubiAmount));\n    assert(dubi.mint(owner, ownerDubiAmount));\n  }\n\n  function release(uint256 _id) external {\n    require(_id > 0);\n\n    // user\n    address _user = msg.sender;\n\n    // get item\n    Item storage item = items[_user][_id];\n\n    // check if it exists\n    require(item.id == _id);\n    // check if its not already fulfilled\n    require(!item.fulfilled);\n    // check time\n    require(now >= item.releaseTime);\n\n    // check if there is enough tokens\n    uint256 balance = purpose.balanceOf(this);\n    require(balance >= item.value);\n\n    // update state\n    item.fulfilled = true;\n\n    // transfer tokens to beneficiary\n    purpose.safeTransfer(item.beneficiary, item.value);\n  }\n\n  function getItem(address _user, uint256 _id) public view returns (uint256, address, uint256, uint256, bool) {\n    Item storage item = items[_user][_id];\n\n    return (\n      item.id,\n      item.beneficiary,\n      item.value,\n      item.releaseTime,\n      item.fulfilled\n    );\n  }\n}",
  "sourcePath": "/home/user/Documents/work/tsg/purpose/contracts/Hodler.sol",
  "compiler": {
    "name": "solc",
    "version": "0.4.18+commit.9cf6e910.Emscripten.clang"
  },
  "schemaVersion": "1.0.1",
  "updatedAt": "2018-01-11T13:16:31.755Z"
}