{
  "contractName": "Hodler",
  "abi": [
    {
      "constant": false,
      "inputs": [
        {
          "name": "_id",
          "type": "uint256"
        }
      ],
      "name": "release",
      "outputs": [],
      "payable": false,
      "stateMutability": "nonpayable",
      "type": "function"
    },
    {
      "constant": true,
      "inputs": [],
      "name": "dubi",
      "outputs": [
        {
          "name": "",
          "type": "address"
        }
      ],
      "payable": false,
      "stateMutability": "view",
      "type": "function"
    },
    {
      "constant": false,
      "inputs": [
        {
          "name": "_id",
          "type": "uint256"
        },
        {
          "name": "_value",
          "type": "uint256"
        },
        {
          "name": "_months",
          "type": "uint256"
        }
      ],
      "name": "hodl",
      "outputs": [],
      "payable": false,
      "stateMutability": "nonpayable",
      "type": "function"
    },
    {
      "constant": true,
      "inputs": [],
      "name": "purpose",
      "outputs": [
        {
          "name": "",
          "type": "address"
        }
      ],
      "payable": false,
      "stateMutability": "view",
      "type": "function"
    },
    {
      "constant": true,
      "inputs": [
        {
          "name": "_user",
          "type": "address"
        },
        {
          "name": "_id",
          "type": "uint256"
        }
      ],
      "name": "getItem",
      "outputs": [
        {
          "name": "",
          "type": "uint256"
        },
        {
          "name": "",
          "type": "address"
        },
        {
          "name": "",
          "type": "uint256"
        },
        {
          "name": "",
          "type": "uint256"
        },
        {
          "name": "",
          "type": "bool"
        }
      ],
      "payable": false,
      "stateMutability": "view",
      "type": "function"
    },
    {
      "inputs": [
        {
          "name": "_purpose",
          "type": "address"
        },
        {
          "name": "_dubi",
          "type": "address"
        }
      ],
      "payable": false,
      "stateMutability": "nonpayable",
      "type": "constructor"
    }
  ],
  "bytecode": "0x6060604052341561000f57600080fd5b604051604080610d2083398101604052808051906020019091908051906020019091905050600073ffffffffffffffffffffffffffffffffffffffff168273ffffffffffffffffffffffffffffffffffffffff161415151561007057600080fd5b600073ffffffffffffffffffffffffffffffffffffffff168173ffffffffffffffffffffffffffffffffffffffff16141515156100ac57600080fd5b816000806101000a81548173ffffffffffffffffffffffffffffffffffffffff021916908373ffffffffffffffffffffffffffffffffffffffff16021790555080600160006101000a81548173ffffffffffffffffffffffffffffffffffffffff021916908373ffffffffffffffffffffffffffffffffffffffff1602179055505050610be28061013e6000396000f30060606040526004361061006d576000357c0100000000000000000000000000000000000000000000000000000000900463ffffffff16806337bdc99b1461007257806354829cad1461009557806364c34364146100ea57806370740aab1461011f578063b8a80aac14610174575b600080fd5b341561007d57600080fd5b6100936004808035906020019091905050610216565b005b34156100a057600080fd5b6100a861044c565b604051808273ffffffffffffffffffffffffffffffffffffffff1673ffffffffffffffffffffffffffffffffffffffff16815260200191505060405180910390f35b34156100f557600080fd5b61011d6004808035906020019091908035906020019091908035906020019091905050610472565b005b341561012a57600080fd5b610132610994565b604051808273ffffffffffffffffffffffffffffffffffffffff1673ffffffffffffffffffffffffffffffffffffffff16815260200191505060405180910390f35b341561017f57600080fd5b6101b4600480803573ffffffffffffffffffffffffffffffffffffffff169060200190919080359060200190919050506109b9565b604051808681526020018573ffffffffffffffffffffffffffffffffffffffff1673ffffffffffffffffffffffffffffffffffffffff168152602001848152602001838152602001821515151581526020019550505050505060405180910390f35b6000806000808411151561022957600080fd5b339250600260008473ffffffffffffffffffffffffffffffffffffffff1673ffffffffffffffffffffffffffffffffffffffff1681526020019081526020016000206000858152602001908152602001600020915083826000015414151561029057600080fd5b8160040160009054906101000a900460ff161515156102ae57600080fd5b816003015442101515156102c157600080fd5b6000809054906101000a900473ffffffffffffffffffffffffffffffffffffffff1673ffffffffffffffffffffffffffffffffffffffff166370a08231306000604051602001526040518263ffffffff167c0100000000000000000000000000000000000000000000000000000000028152600401808273ffffffffffffffffffffffffffffffffffffffff1673ffffffffffffffffffffffffffffffffffffffff168152602001915050602060405180830381600087803b151561038557600080fd5b6102c65a03f1151561039657600080fd5b505050604051805190509050816002015481101515156103b557600080fd5b60018260040160006101000a81548160ff0219169083151502179055506104468260010160009054906101000a900473ffffffffffffffffffffffffffffffffffffffff1683600201546000809054906101000a900473ffffffffffffffffffffffffffffffffffffffff1673ffffffffffffffffffffffffffffffffffffffff16610a6f9092919063ffffffff16565b50505050565b600160009054906101000a900473ffffffffffffffffffffffffffffffffffffffff1681565b6000806000806000806000808a11151561048b57600080fd5b60008911151561049a57600080fd5b60038814806104a95750600688145b806104b45750600c88145b15156104bf57600080fd5b3396506104d8622819a089610b4290919063ffffffff16565b95506104ed8642610b7d90919063ffffffff16565b945042851115156104fd57600080fd5b610511600389610b9b90919063ffffffff16565b9350610539606461052b868c610b4290919063ffffffff16565b610b9b90919063ffffffff16565b92506000809054906101000a900473ffffffffffffffffffffffffffffffffffffffff1673ffffffffffffffffffffffffffffffffffffffff166370a08231886000604051602001526040518263ffffffff167c0100000000000000000000000000000000000000000000000000000000028152600401808273ffffffffffffffffffffffffffffffffffffffff1673ffffffffffffffffffffffffffffffffffffffff168152602001915050602060405180830381600087803b15156105ff57600080fd5b6102c65a03f1151561061057600080fd5b50505060405180519050915088821015151561062b57600080fd5b600260008873ffffffffffffffffffffffffffffffffffffffff1673ffffffffffffffffffffffffffffffffffffffff16815260200190815260200160002060008b815260200190815260200160002090508981600001541415151561069057600080fd5b60a0604051908101604052808b81526020018873ffffffffffffffffffffffffffffffffffffffff1681526020018a815260200186815260200160001515815250600260008973ffffffffffffffffffffffffffffffffffffffff1673ffffffffffffffffffffffffffffffffffffffff16815260200190815260200160002060008c81526020019081526020016000206000820151816000015560208201518160010160006101000a81548173ffffffffffffffffffffffffffffffffffffffff021916908373ffffffffffffffffffffffffffffffffffffffff160217905550604082015181600201556060820151816003015560808201518160040160006101000a81548160ff0219169083151502179055509050506000809054906101000a900473ffffffffffffffffffffffffffffffffffffffff1673ffffffffffffffffffffffffffffffffffffffff1663a0bd1ec1888b6000604051602001526040518363ffffffff167c0100000000000000000000000000000000000000000000000000000000028152600401808373ffffffffffffffffffffffffffffffffffffffff1673ffffffffffffffffffffffffffffffffffffffff16815260200182815260200192505050602060405180830381600087803b151561087557600080fd5b6102c65a03f1151561088657600080fd5b50505060405180519050151561089857fe5b600160009054906101000a900473ffffffffffffffffffffffffffffffffffffffff1673ffffffffffffffffffffffffffffffffffffffff166340c10f1988856000604051602001526040518363ffffffff167c0100000000000000000000000000000000000000000000000000000000028152600401808373ffffffffffffffffffffffffffffffffffffffff1673ffffffffffffffffffffffffffffffffffffffff16815260200182815260200192505050602060405180830381600087803b151561096557600080fd5b6102c65a03f1151561097657600080fd5b50505060405180519050151561098857fe5b50505050505050505050565b6000809054906101000a900473ffffffffffffffffffffffffffffffffffffffff1681565b600080600080600080600260008973ffffffffffffffffffffffffffffffffffffffff1673ffffffffffffffffffffffffffffffffffffffff1681526020019081526020016000206000888152602001908152602001600020905080600001548160010160009054906101000a900473ffffffffffffffffffffffffffffffffffffffff16826002015483600301548460040160009054906101000a900460ff1695509550955095509550509295509295909350565b8273ffffffffffffffffffffffffffffffffffffffff1663a9059cbb83836000604051602001526040518363ffffffff167c0100000000000000000000000000000000000000000000000000000000028152600401808373ffffffffffffffffffffffffffffffffffffffff1673ffffffffffffffffffffffffffffffffffffffff16815260200182815260200192505050602060405180830381600087803b1515610b1a57600080fd5b6102c65a03f11515610b2b57600080fd5b505050604051805190501515610b3d57fe5b505050565b6000806000841415610b575760009150610b76565b8284029050828482811515610b6857fe5b04141515610b7257fe5b8091505b5092915050565b6000808284019050838110151515610b9157fe5b8091505092915050565b6000808284811515610ba957fe5b04905080915050929150505600a165627a7a7230582051823c1156da8ed3712a81545327d98a024cd67c058666041136109b9237854a0029",
  "source": "pragma solidity 0.4.18;\n\nimport \"zeppelin-solidity/contracts/token/SafeERC20.sol\";\nimport \"zeppelin-solidity/contracts/math/SafeMath.sol\";\nimport \"./Purpose.sol\";\nimport \"./DUBI.sol\";\n\n\ncontract Hodler {\n  using SafeMath for uint256;\n  using SafeERC20 for Purpose;\n  using SafeERC20 for DUBI;\n\n  Purpose public purpose;\n  DUBI public dubi;\n\n  struct Item {\n    uint256 id;\n    address beneficiary;\n    uint256 value;\n    uint256 releaseTime;\n    bool fulfilled;\n  }\n\n  mapping(address => mapping(uint256 => Item)) private items;\n\n  function Hodler(address _purpose, address _dubi) {\n    require(_purpose != address(0));\n    require(_dubi != address(0));\n\n    purpose = Purpose(_purpose);\n    dubi = DUBI(_dubi);\n  }\n\n  function hodl(uint256 _id, uint256 _value, uint256 _months) external {\n    require(_id > 0);\n    require(_value > 0);\n    // only 3 types are allowed\n    require(_months == 3 || _months == 6 || _months == 12);\n\n    address _user = msg.sender;\n\n    // turn months to seconds\n    uint256 _seconds = _months.mul(2628000);\n    // get release time\n    uint256 _releaseTime = now.add(_seconds);\n    require(_releaseTime > now);\n\n    // calculate percentage to mint: 3 months = 1% => _months / 3 = x\n    uint256 percentage = _months.div(3);\n    // get dubi amount: => (_value * percentage) / 100\n    uint256 dubiAmount = _value.mul(percentage).div(100);\n\n    // check if user has enough balance\n    uint256 balance = purpose.balanceOf(_user);\n    require(balance >= _value);\n\n      // get dubi item\n    Item item = items[_user][_id];\n\n    // make sure dubi doesnt exist already\n    require(item.id != _id);\n\n    // update state\n    items[_user][_id] = Item(_id, _user, _value, _releaseTime, false);\n\n    // transfer tokens to hodler\n    assert(purpose.hodlerTransfer(_user, _value));\n\n    // mint tokens for user\n    assert(dubi.mint(_user, dubiAmount));\n  }\n\n  function release(uint256 _id) external {\n    require(_id > 0);\n\n    address _user = msg.sender;\n\n    // get item\n    Item item = items[_user][_id];\n\n    // check if it exists\n    require(item.id == _id);\n    // check if its not already fulfilled\n    require(!item.fulfilled);\n    // check time\n    require(now >= item.releaseTime);\n\n    // check if there is enough tokens\n    uint256 balance = purpose.balanceOf(this);\n    require(balance >= item.value);\n\n    // update state\n    item.fulfilled = true;\n\n    // transfer tokens to beneficiary\n    purpose.safeTransfer(item.beneficiary, item.value);\n  }\n\n  function getItem(address _user, uint256 _id) view returns (uint256, address, uint256, uint256, bool) {\n    Item item = items[_user][_id];\n\n    return (\n      item.id,\n      item.beneficiary,\n      item.value,\n      item.releaseTime,\n      item.fulfilled\n    );\n  }\n}",
  "sourcePath": "/mnt/d/work/thesingularitygroup/projects/purpose/contracts/contracts/Hodler.sol",
  "compiler": {
    "name": "solc",
    "version": "0.4.18+commit.9cf6e910.Emscripten.clang"
  },
  "schemaVersion": "1.0.1",
  "updatedAt": "2017-12-30T17:40:05.294Z"
}